:020000040800F2
:1000000018110020E13F0008E93F0008E906000858
:10001000ED3F0008EF3F0008F13F0008000000003E
:10002000000000000000000000000000F33F000896
:10003000F53F0008000000002F060008713F00088F
:10004000FB3F0008FB3F0008FB3F0008FB3F0008A8
:10005000FB3F0008FB3F00080D4C0008214C000846
:10006000354C0008494C00085D4C0008FB3F000877
:10007000FB3F0008FB3F0008FB3F0008FB3F000878
:10008000FB3F0008FB3F0008FB3F0008B9480008A1
:10009000CD480008E3480008F9480008714C000802
:1000A000FB3F0008FB3F0008FB3F0008FB3F000848
:1000B000FB3F0008FB3F0008FB3F0008FB3F000838
:1000C000FB3F0008FB3F0008FB3F0008FB3F000828
:1000D000FB3F0008FB3F0008F75000080B510008E9
:1000E0009D4C0008FB3F0008FB3F0008FB3F000859
:1000F000FB3F0008FB3F0008FB3F0008FB3F0008F8
:10010000FB3F0008FB3F0008FB3F0008FB3F0008E7
:10011000FB3F0008FB3F0008FB3F0008FB3F0008D7
:10012000FB3F0008FB3F0008FB3F0008FB3F0008C7
:1001300000F002F800F05CF80AA090E8000C82449D
:100140008344AAF10107DA4501D100F051F8AFF27A
:10015000090EBAE80F0013F0010F18BFFB1A43F0A5
:1001600001031847C0F00000E0F000000A444FF01F
:10017000000C10F8013B13F0070408BF10F8014B06
:100180001D1108BF10F8015B641E05D010F8016B4B
:10019000641E01F8016BF9D113F0080F1EBF10F8AF
:1001A000014BAD1C0C1B09D16D1E58BF01F801CBD2
:1001B000FAD505E014F8016B01F8016B6D1EF9D555
:1001C0009142D6D37047000000230024002500266A
:1001D000103A28BF78C1FBD8520728BF30C148BFAA
:1001E0000B6070471FB50DF02FF81FBD10B510BD87
:1001F0000CF0F7FF1146FFF7F5FF06F09AFC0DF043
:1002000015F803B4FFF7F2FF03BC00F067F9000034
:1002100070B5012440F203600BF042FB184D10232F
:100220000322194628460BF0D1FF102128460CF076
:1002300022F80021142002F0E3FC0021132002F038
:10024000DFFC4FF47A7515E00121142002F0ECFC7C
:100250000021132002F0E8FC28460AF086FE002167
:10026000142002F0E1FC0121132002F0DDFC2846FD
:100270000AF07BFE641C012CE6D1002070BD00005A
:10028000000C01402C4D4FF4FA662C4630460AF023
:100290006CFE294A03230021A86803F0FAFBA37827
:1002A0006278217825A009F0B5F823490323C91CF9
:1002B0000022A86803F0EDFBE8E71FB502280ED086
:1002C000082226A102A809F093F91023254A23A1A8
:1002D00025A004F041FE02A920B125A003E0496851
:1002E0000822EFE727A009F095F802A806F03AFCEB
:1002F00011498860D8B108218DF8011004218DF8CA
:10030000001025490191694603F0E2FA0A211520FF
:100310004FF480630022CDE90001AFF297011FA0E6
:100320000AF03AFC002801D00AF0C5FB1FBD02A963
:100330001CA009F06FF8E9E7000000207370695F06
:10034000726563762069732030782578E380813088
:10035000782578E38081307825780A0073706930D9
:100360003100000000080140737069300000000097
:10037000257320617474616368206661696C6564CB
:100380000A0000002573206174746163682073752E
:10039000636573730A00000040420F00636F5F6380
:1003A000666700007370692073616D706C65207200
:1003B000756E206661696C6564212063616E2774C7
:1003C0002066696E64202573206465766963652103
:1003D0000A00000010B5044654490CF09DFE0028A8
:1003E00018D052492046891D0CF096FE98B14F490D
:1003F00020460D310CF090FE78B14DA009F00AF8BE
:100400004A4952A21B3159A009F004F859A009F039
:1004100001F8002010BD012010BD022010BD10B554
:1004200043A008F0F7FF414948A225314FA008F04A
:10043000F1FF50A008F0EEFF002010BD10B53CA069
:1004400008F0E8FF394941A2303148A008F0E2FF46
:1004500048A008F0DFFF002010BD70B515460E461D
:100460004FF0FF3401280FD002280DD0B0B130A0DA
:1004700008F0D0FF2D4935A23A313CA008F0CAFF60
:100480003CA008F0C7FF07E009F08BF920B12B462C
:100490003246214606F0ADFC002070BD204670BDFE
:1004A00010B523A008F0B6FF204928A245312FA09F
:1004B00008F0B0FF2FA008F0ADFF002010BD10B570
:1004C00014460B462DA2214609F055F9012010BD16
:1004D00000207047C1B22BA008F09CBF00F054F878
:1004E000FEE710B512A008F095FF104917A24F3192
:1004F0001EA008F08FFF1FA008F08CFF002010BD89
:10050000022801D8012070470020704710B508A0CC
:1005100008F080FF05490DA2143114A008F07AFFFD
:1005200014A008F077FF002010BD000052D2000890
:100530001B5B33336D5B572F61726D6C6962632E89
:1005400073797363616C6C735D200000506C65613E
:10055000736520656E61626C652052545F55534926
:100560004E475F504F5349585F46530025733A201A
:10057000257300001B5B306D0A00000074656D255B
:10058000303364002563000070B505460AF09DF91C
:10059000040011D00EA008F03DFF2A46214611A00C
:1005A00008F038FF14A008F035FF2046BDE8704081
:1005B000002201210AF0DFBC70BD10B5040005D097
:1005C00008F0DDFF0146204605F089FA002010BD45
:1005D0001B5B33316D5B452F7374646C69625D2006
:1005E000000000007468726561643A2573206578C4
:1005F00069743A25642100001B5B306D0A0000001D
:10060000EFF3108072B6704780F310887047444A49
:100610001368012B04D04FF001031360414A1060AE
:10062000414A116041484FF0805101607047EFF33B
:10063000108272B63A48016851B34FF00001016070
:100640003848016891B1EFF309811EF0100F08BF1F
:1006500021ED108B21E9F00F4FF000041EF0100F78
:1006600008BF012441F8044D006801602E49096863
:10067000096808C9B1E8F00F002B18BFB1EC108B66
:1006800081F309884EF0100E002B18BF2EF0100ECB
:1006900082F310884EF0040E704723490860EFF390
:1006A000148222F0040282F314881E494FF00000E5
:1006B00008601B494FF0010008601D481D49D0F833
:1006C000002041EA0201016018484FF080510160AA
:1006D00019480068006880F3088861B662B6BFF305
:1006E0004F8FBFF36F8F70471EF0040F0CBFEFF3F7
:1006F0000880EFF3098020E9F00F40F804ED40F89E
:1007000004ED1EF0040F0CBF80F3088880F3098805
:1007100000B500F068F85DF804EB4EF0040E704789
:1007200018000020100000201400002004ED00E05C
:1007300020ED00E00000FFFF08ED00E070B504468A
:10074000121D22F007000022A64D443840F8225026
:10075000521C112AFAD3416200218162C16200F168
:100760003402016382E81A004FF080730364016071
:1007700070BD9D490860704710B59CA008F04AFE06
:100780009D4C21789DA008F045FE2078C00702D03E
:10079000A0A008F03FFE2078800702D5A0A008F0B6
:1007A00039FE2078400702D5A0A008F033FE20785B
:1007B000000702D5A1A008F02DFE2078C00602D5C2
:1007C000A1A008F027FE2078000607D58A480F3040
:1007D0000168BDE810409EA008F01CBEBDE81040B6
:1007E0009FA008F017BE70B57F49054628300968FC
:1007F0002C1D11B18847002857D09AA0216C08F011
:1008000009FE9CA0616A08F005FE9EA0A16A08F09E
:1008100001FEA0A0E16A08F0FDFDA2A0216B08F096
:10082000F9FDA4A0616808F0F5FDA6A0A16808F094
:10083000F1FDA8A0E16808F0EDFDAAA0216908F08B
:10084000E9FDACA0616908F0E5FDAEA0A16908F082
:10085000E1FDB0A0E16908F0DDFDB2A0216A08F079
:10086000D9FDB4A0616B08F0D5FDB6A0A16B08F06E
:10087000D1FDB8A0E16B08F0CDFD2878400708D580
:100880000AF023F80146B7A008F0C4FD05F0C6FA47
:1008900002E0BCA008F0BEFD2878C00602D4C0A0CB
:1008A00008F0B8FD00F013F8FEE770BD10B5C0A069
:1008B00008F0B0FDBDE8104040F2B512C049C1A03B
:1008C00008F0DCBE4C49C0481D390860704710B5BF
:1008D000494CE41C2068800702D5BCA008F09AFDB2
:1008E0002068400010D54448007808B1FFF744FF65
:1008F0004148401E007808B100F042F83E48401CD4
:10090000008808B100F009F82068002804DABDE882
:100910001040B4A008F07EBD10BD10B5B5A008F021
:1009200079FD354C641C2188B6A008F073FD208841
:10093000C00702D0B9A008F06DFD2088800702D55D
:10094000B9A008F067FD2088400702D5B9A008F0DB
:1009500061FD2088000702D5B8A008F05BFD208863
:10096000C00502D5B7A008F055FD2088800502D546
:10097000B7A008F04FFDBDE81040A1A008F04ABDA7
:1009800010B5B6A008F046FD1B4C641E2178B8A037
:1009900008F040FD2078C00702D0BBA008F03AFD67
:1009A0002078800702D5BBA008F034FD207800072E
:1009B00002D5BBA008F02EFD2078C00602D5BBA052
:1009C00008F028FD2078000607D50B480B30016899
:1009D000BDE81040B8A008F01DBDBDE8104088A0DB
:1009E00008F018BDEFBEADDE0C000020627573206C
:1009F0006661756C743A0A0029ED00E05343425F6A
:100A0000434653525F424653523A3078253032586B
:100A1000200000004942555345525220000000007A
:100A2000505245434953455252200000494D5052BF
:100A3000454349534552522000000000554E53543F
:100A40004B4552522000000053544B455252200057
:100A50005343422D3E424641523A253038580A000F
:100A60000A0000007073723A203078253038780A16
:100A7000000000007230303A203078253038780A93
:100A8000000000007230313A203078253038780A82
:100A9000000000007230323A203078253038780A71
:100AA000000000007230333A203078253038780A60
:100AB000000000007230343A203078253038780A4F
:100AC000000000007230353A203078253038780A3E
:100AD000000000007230363A203078253038780A2D
:100AE000000000007230373A203078253038780A1C
:100AF000000000007230383A203078253038780A0B
:100B0000000000007230393A203078253038780AF9
:100B1000000000007231303A203078253038780AF1
:100B2000000000007231313A203078253038780AE0
:100B3000000000007231323A203078253038780ACF
:100B400000000000206C723A203078253038780A96
:100B5000000000002070633A203078253038780A91
:100B60000000000068617264206661756C74206F1B
:100B70006E207468726561643A2025730D0A0D0A4F
:100B80000000000068617264206661756C74206FFB
:100B90006E2068616E646C65720D0A0D0A000000BB
:100BA00046505520616374697665210D0A00000086
:100BB00073687574646F776E2E2E2E0A0000000025
:100BC000ABD20008300000000400FA056661696CD1
:100BD000656420766563746F722066657463680A65
:100BE000000000006465627567206576656E740AB2
:100BF000000000007573616765206661756C743A6A
:100C00000A0000005343425F434653525F55465328
:100C1000523A30782530325820000000554E444575
:100C200046494E5354522000494E56535441544560
:100C300020000000494E5650432000004E4F4350C4
:100C400020000000554E414C49474E4544200000CD
:100C500044495642595A45524F2000006D656D2057
:100C60006D616E616765206661756C743A0A00009B
:100C70005343425F434653525F4D4653523A307896
:100C800025303258200000004941434356494F4C1B
:100C9000200000004441434356494F4C20000000CF
:100CA0004D554E53544B4552522000004D53544B1A
:100CB00045525220000000005343422D3E4D4D410D
:100CC000523A253038580A0010B5040004D11822D1
:100CD000FD49FEA008F0D2FC0021C4F8F810C4F8C9
:100CE000FC10C4F8D010216C20460A6822B1BDE87F
:100CF000104000F1440110476FF0050010BD2DE9D0
:100D0000F84F15468946060005D1EF4932220C31CD
:100D1000F2A008F0B3FCD6F8F8402F462CB9EA4907
:100D200036220C31F1A008F0A9FC4FF0000A002D8A
:100D30006DD0FFF765FC8346D9F8040040F3074007
:100D4000002823DBD6F8D01001B3B26D82421DD942
:100D500000EBC0031C22009302EB8303CA58194422
:100D60008A4213D0083A9046104600F0CCFE08F1B3
:100D7000080000F0C8FE0098D6F8D020042101EB4E
:100D800080001158B9B1491E115014E0401C3BD1EC
:100D9000206904F11001884236D0804600F0B3FE8D
:100DA00008F1080000F0AFFED8F8100018B1416853
:100DB00009B1491E41605846C8F810A0FFF724FC4D
:100DC000B8F1000F23D0102208F11401484608F0B2
:100DD0008AFBFFF715FC8346414604F1080000F04A
:100DE0008BFE6068401C6060B16C884205D9B649D2
:100DF00072220C31C2A008F041FC5846FFF704FCF7
:100E000009F11009103D92E75846FFF7FDFB781BEA
:100E1000BDE8F88F2DE9F74F84B01746060005D1DD
:100E2000A94987221831ADA008F028FC0197D6F80F
:100E3000FC502DB9A4498B221831BDA008F01EFC2E
:100E40004FF0FF39002F6CD005F124004FF0180B44
:100E50004FF0020A00904946281D06F06FFAFFF78E
:100E6000CFFB6C6A80462CB9974997221831B5A000
:100E700008F004FC204600F046FE4046FFF7C4FBA5
:100E80002868C4F814A0211AB1FBFBF2306C059954
:100E900083683046984780B1FFF7B2FB014600985F
:100EA0000268546002682260046060600846FFF7D0
:100EB000ABFB281D06F0DAFAC4E70120C6F8900063
:100EC000494604F1080000F0B9FEFFF799FB0290D3
:100ED0002068D4F81480A04202D0204600F013FE0F
:100EE0002146009800F008FE0298FFF78DFB281DB0
:100EF00006F0BCFAB8F1000F07D0FFF781FB716F65
:100F0000491C7167FFF780FB0BE0FFF779FB316F3E
:100F1000491C3167FFF778FB059810300590103FAA
:100F200099D1019807B0C01BBDE8F08F2DE9F04FB3
:100F30008BB00F46040006D1634940F20B123531E5
:100F400062A008F09BFB04F1D4004FF0FF31089041
:100F500006F062FCF8B22083D4F8F8004FF00009E4
:100F60004FF0080A00284FD1F8054DD5A06C182184
:100F700000EBC000002601EB800008F096FB0500A6
:100F800006D1514940F21B12353158A008F076FBCA
:100F900005F118002860A16C01EBC1018A00002155
:100FA00008F07EFA05F108000290E860A8600830B9
:100FB00068612861A06C4FF0100B686014E000BFFE
:100FC000296806EBC60801EB8801029800F094FD41
:100FD0002A680AEB88001044761C406000602B6889
:100FE0000BEB880043F80090A06CB042E8D8C4F83E
:100FF000F850208B4FF4807240F480712183206C74
:101000001021436820469847D4F8FC00002854D1AA
:10101000780552D5E06C2C2100EB4000002601EB56
:10102000C00008F042FB050006D1274940F23B1200
:1010300035313FA008F022FB05F12C002860E16C5F
:1010400001EB4101CA00002108F02AFA05F1240051
:10105000A86283464FF01408686213E0286806EB24
:10106000460700EBC701584600F046FD29680AEB29
:10107000C700084400F0D0FD2A6808EBC701761CC1
:1010800042F80190E06CB042E8D8224632A104A8B0
:1010900008F080FB002304A9281DE26C06F07BF811
:1010A000C4F8FC50208B4FF4806240F480612183AF
:1010B000206C1021436820469847206C4FF48052E2
:1010C0001021436820464BE0BED2000864657620BC
:1010D000213D2052545F4E554C4C000063616E2000
:1010E000213D2052545F4E554C4C000072785F6693
:1010F00069666F20213D2052545F4E554C4C0000D4
:1011000072785F6669666F2D3E667265656E756D95
:1011100062657273203C3D2063616E2D3E636F6E8D
:101120006669672E6D7367626F78737A00000000DE
:1011300074785F6669666F20213D2052545F4E557A
:101140004C4C000074785F746F736E6420213D20F6
:1011500052545F4E554C4C002573746C00000000D7
:101160009847D4F8D00020BBA06D002500EBC0004C
:10117000800008F09AFA060005D140F25B12FE49A1
:10118000FEA008F07BFAA06D002100EBC0008200F9
:10119000304608F085F907E005EBC50006EB800056
:1011A0001C306D1C40600060A06DA842F4D8C4F8EB
:1011B000D060D4F8980030B90120C4F8980004F148
:1011C0009C000AF01BF8089806F0E8FB00200BB022
:1011D000AAE62DE9F041040007D1E7494FF4BB72BC
:1011E0000C31AFF2181008F049FA04F1D4004FF0B6
:1011F000FF31074606F010FBA07E012805D93846CE
:1012000006F0CCFB0020BDE8F081D4F89800002562
:1012100028B104F19C00C4F898500AF046F8C4F8CC
:10122000C850C4F8CC50D4F8D00018B108F029FB4D
:10123000C4F8D050208BC0051AD5D4F8F8603EB958
:10124000CD4940F299120C31AFF2601008F016FA55
:10125000304608F016FB208B4FF4807220F480712A
:101260002183C4F8F850206C112143682046984728
:10127000208B40051DD5D4F8FC603EB9BE4940F234
:10128000A7120C31AFF2581008F0F8F9301D05F034
:10129000B1FF304608F0F5FA208B4FF4806220F45D
:1012A00080612183C4F8FC50206C112143682046E2
:1012B0009847206C4FF4805211214368204698478C
:1012C0009DE770B51D461646040007D1AA4940F2B5
:1012D000BF121931AFF20C2008F0D0F955B1218BB3
:1012E0002046C90506D5817E21B12A463146BDE892
:1012F000704004E5002070BD70B51D461646040020
:1013000007D19D4940F2D3122531AFF2402008F0B9
:10131000B5F99DB1218B204649050FD5817E69B174
:10132000B0F850102A4611F47F4F314603D0BDE883
:10133000704000F0F1BBBDE870406BE5002070BD6F
:101340002DE9F84F15460E4604004FF0000807D16E
:1013500089494FF4F7723231AFF2902008F08EF9DC
:10136000132E77D006DC012E15D0022E0FD0032EBF
:1013700004D115E0162E19D0182E65D0206C4368C4
:10138000002B7CD02A463146204698471DE1E08A52
:1013900040F0200002E0E08A20F02000E08215E129
:1013A000206C29460268204690470EE1B4F85000B0
:1013B000C0F30720A842F2D0206C2A463146436889
:1013C000204698475FEA000873D1B4F85000D4F87B
:1013D000FC5010F47F4F464616D119E0FFF710F984
:1013E0000746286806EB460150F8312000EBC100A3
:1013F000824203D1281D06F039F801E000F083FB9A
:101400003846FFF701F9761CE06CB042E6D8DDE023
:10141000142705F1240912E0FFF7F2F8824606EBE3
:101420004600296807EBC0028A5822B901EBC001C7
:10143000484600F061FB5046FFF7E6F8761CE06C8A
:10144000B042E9D8C2E005E0286844F8C80F6868EF
:101450006060BBE0206C2A463146436820469847CE
:101460005FEA000824D1D4F8D000002820D02F0053
:1014700008D141494FF41072323144A000E0A2E09B
:1014800008F0FCF8D7E901053E6800274FF0040A90
:101490004FF01C094FF0080B40B991E0A868A16D0E
:1014A000884201D2002805DA1435761E002EF5D1C7
:1014B0008CE08CE0FFF7A4F80146AA68D4F8D000CD
:1014C00002EBC20250F8220048BB0846FFF79CF826
:1014D000A86854F8D01F00EBC0020BEB8200084450
:1014E0001422294607F0FFFFFFF78AF8AB6822684D
:1014F000014603EBC303012042F82300A8682268D9
:1015000000EBC0030AEB83001750A86854F8D029F9
:1015100000EBC00309EB8300104440600060084604
:10152000FFF772F8C0E7A868A16D884246D200288C
:1015300044DBFFF765F80090A968D4F8D00001EB10
:10154000C10150F82120AAB340F82170A868D4F84E
:10155000D01000EBC0020AEB82000F50A868D4F84C
:10156000D02000EBC00109EB8101505811448842A2
:1015700001D000F0C8FA0DE0F3D200087068647280
:1015800020213D2052545F4E554C4C007066696CD2
:10159000746572000098FFF737F8A868D4F8D01087
:1015A00000EBC0020BEB820008441422002107F07C
:1015B00077FF03E0FFE70098FFF726F81435761E63
:1015C000002EB0D102E06FF00500804640461FE4D7
:1015D00010B5040005D140F29E22F849F8A008F0A9
:1015E0004DF804F15C021721204605F033FCD4F8D5
:1015F000C8201AB12046D4F8CC109047D4F89800EF
:10160000012802D1FF20C4F8980010BD2DE9FC414B
:101610001E4617468846040007D1E84940F2C62214
:101620000B31AFF2485008F029F80420207500254E
:10163000E5612562C4F8D050C4F8F8500122E0A159
:1016400004F1D400C4F8FC5006F032F8DD486062C2
:10165000DD48A062DD48E062DD482063DD4860636C
:10166000C4F8C8502764DC48C4F8CC50A0633C22BE
:10167000002104F15C0007F013FFE663C4F8985002
:101680000221606DCDE900012346D44A414604F1B0
:101690009C0009F0F5FC02B041462046BDE8F0414F
:1016A000032205F062BA2DE9FF5FCDB201270E4695
:1016B00004464FF000084FF0140A012D0CD0022D03
:1016C0007ED0032DFCD0062D7BD1FEF799FFE16E75
:1016D000491CE166FEF798FFD4F8F8503DB9B749C8
:1016E00040F20D321E31AFF2FC5007F0C7FF208BE5
:1016F000C00506D4B14940F20F321E31B8A007F040
:10170000BDFF206C32126946C36820469847401CD2
:1017100057D0FEF775FF8346A06EC4F88C70401C4E
:10172000A066A86805F108014FF0040988421BD0A3
:10173000064600F0E8F906F1080000F0E4F9316926
:1017400019B1486808B1401E4860C6F81080686842
:1017500030B99A4940F225321E31ADA007F08EFF14
:101760006868401E686017E0286905F1100188422A
:1017700057D00646E06E401CE066304600F0C3F9E4
:1017800006F1080000F0BFF9306918B1416809B1ED
:10179000491E4160C6F810805846FEF735FFEEB38B
:1017A0001022694606F1140007F09DFEFEF728FF9F
:1017B0008346314605F1100000F09EF9019801E0E2
:1017C0007FE062E040F30747D4F8D00038B3A06D63
:1017D000B84201D9002F06DA784940F242321E3170
:1017E00092A007F04BFFD4F8D00007EBC70850F8E1
:1017F0002810A1B11C2202EB8801084406F108015F
:1018000000F07AF9D4F8D01001EB88003061D4F8F8
:10181000D00009EB88014258521C01E004E000E0CE
:1018200042505846FEF7F0FED4F8D00078B307EBEC
:10183000C70650F8261051B30AEB860850F8080086
:1018400028B3A06DB84201D9002F06DA5B494FF4E6
:1018500055721E3175A007F011FFFEF7D1FED4F8C6
:10186000D02009EB860151580D01FEF7CDFE002D69
:101870000BD0D4F8D000182101EB860150F8086095
:1018800041582B463A462046B047BDE8FF9FFFE748
:10189000E0690028F9D0FEF7B3FE1035024629466C
:1018A000002000E0401C2D688D42FBD10501104650
:1018B000FEF7AAFE002DE8D0E269294620469047AF
:1018C000E3E7D0F8FC403CB93C4940F27A321E31A3
:1018D000AFF2A47007F0D2FE301200EB40011420EA
:1018E00000EBC100022D0BD023681F50206804B00C
:1018F0000822BDE8F05F02EBC101084400F02BBAFA
:10190000226842F80080F1E730B58FB00C4602281B
:1019100049DB606805F026F96168050025D04DA017
:1019200007F078FD6A461721284605F093FADDE9AD
:1019300000124F4807F06EFDDDE907124D4807F031
:1019400069FDDDE909124C4807F064FD4BA0029ADD
:101950000B9907F05FFD02995648082912D2DFE87B
:1019600001F00B0D1E1E2020202053A007F052FD79
:101970004FF0FF300FB030BD016800E0416855A066
:1019800007F048FDDDE90312534807F043FDDDE9A8
:10199000050101445148069A07F03CFD0BE08168BF
:1019A000EDE7C168EBE74EA0216807F033FD514831
:1019B000216807F02FFD0020DCE7000034D3000889
:1019C00063616E00C90C00082D0F0008D3110008D8
:1019D000C3120008F912000841130008D1150008CD
:1019E00063616E2D3E706172656E742E6F70656EF0
:1019F0005F666C616720262052545F444556494318
:101A0000455F464C41475F494E545F5258000000C5
:101A100072785F6669666F2D3E667265656E756D7C
:101A200062657273203E20300000000068647220FE
:101A30003C2063616E2D3E636F6E6669672E6D613B
:101A40007868647220262620686472203E3D20302B
:101A5000000000002046696E6465642063616E20AA
:101A60006465766963653A2025732E2E2E0000008A
:101A700070E80008B4E800082CE800080A20435287
:101A8000432E2E2E2E2E2E2E6572726F722E2E63E8
:101A90006F756E743A20253031306C642E2045729B
:101AA000726F722E636F64652E5B253031306C640B
:101AB0005D3A20001C0000202043616E27742066E0
:101AC000696E642063616E206465766963652025B4
:101AD000730A000025732E00E8E7000820E70008DD
:101AE00020496E76616C69642043616C6C202573BB
:101AF0000A00000064E700084268116042684A601A
:101B0000416008607047D0E900124A60D0E90012D5
:101B100011604060006070472DE9F05F154688460F
:101B2000040004D1D122324932A007F0A7FDD4F835
:101B3000FC60AB462EBBD5222D4932A007F09EFD9E
:101B40002CE000BFB8F80400C0F30727E06CB842EF
:101B500026D9FEF755FD07EB470A1422316802EB40
:101B6000CA0951F809206AB1FEF74EFD07EB47029A
:101B70000820316800EBC20008444FF0FF3100F04C
:101B80005DF80BE0022341F80930FEF73DFD206CC3
:101B90003A46414683682046984728B1002DD1D166
:101BA000ABEB0500BDE8F09F0120C4F890000821D0
:101BB00001EBCA0032684FF0FF31104400F03EF8EC
:101BC000316851F8090038B1FEF71AFD616F491C00
:101BD0006167FEF719FDE3E7FEF712FD216F491C6F
:101BE0002167FEF711FD08F11008103DAAD1D7E7D3
:101BF000E2D2000863616E20213D2052545F4E55B1
:101C00004C4C000074785F6669666F20213D20525D
:101C1000545F4E554C4C000010B5040004D11B22FB
:101C20005F4960A007F02AFDFEF7EAFC002102C42C
:101C300064602460BDE81040FEF7E6BC2DE9F34186
:101C4000040005D156493A22133156A007F016FD7B
:101C5000019800283BD0FEF7D3FC054608F0ADFD07
:101C600050B14F4955A0133107F0D4FB4C493D22E8
:101C700013315DA007F002FDFEF7C2FC064608F036
:101C800024FE50B9464959A0133107F0C3FB44491B
:101C90003D22133154A007F0F1FCFEF7B1FC0746DA
:101CA00007F0D8F950B13E495EA0133107F0B2FBFE
:101CB0003B493D2213314CA007F0E0FC3846FEF7CB
:101CC000A3FC3046FEF7A0FC2846FEF79DFC00274B
:101CD00008F0FBFD0546FEF793FC804620680026D1
:101CE00001282ED06168201D814205D02C49462252
:101CF000133156A007F0C2FC019848B328462E6362
:101D000008F0C0FFA26805F11400211D1060A26850
:101D1000AA61A06069610198002809DD05F14C0005
:101D200001AA0021074609F0F0FA384609F066FAE0
:101D30004046FEF769FC08F0B2FC2F6BFEF760FC32
:101D4000804626604046FEF75FFC3846BDE8FC81D1
:101D50006FF00107F6E770B5040005D110497F2246
:101D6000263110A007F08AFC2068012816D0FEF763
:101D700047FC0546012001C42068A04209D0143860
:101D800008F062FE2846FEF73FFCBDE8704008F010
:101D900086BC2846BDE87040FEF736BC70BD00002A
:101DA00060D30008636F6D706C6574696F6E20217D
:101DB0003D2052545F4E554C4C00000046756E63FA
:101DC00074696F6E5B25735D3A2073636865647533
:101DD0006C6572206973206E6F7420617661696C26
:101DE00061626C650A0000003000000046756E6399
:101DF00074696F6E5B25735D207368616C6C206E17
:101E00006F742062652075736564206265666F7209
:101E100065207363686564756C65722073746172A4
:101E2000740A000046756E6374696F6E5B25735D9E
:101E3000207368616C6C206E6F742062652075730E
:101E4000656420696E204953520A000072745F6C09
:101E50006973745F6973656D707479282628636F80
:101E60006D706C6574696F6E2D3E73757370656E01
:101E70006465645F6C697374292900002DE9F04181
:101E80001E4617460D46040004D12F22FA49FBA036
:101E900007F0F4FB25B93022F749FDA007F0EEFB6F
:101EA000FE4826622060A580E780208961896FF363
:101EB0000E0040F400402081080C0004608104F111
:101EC0001000606120610830E061A061E80007F067
:101ED000ECFBE06010B10020BDE8F0816FF0040081
:101EE000FAE72DE9FF5F040005D1E34962221331CF
:101EF000E2A007F0C3FBE9492068884205D0DE492B
:101F000063221331E6A007F0B9FB039800283BD009
:101F1000FEF776FB054608F050FC50B1D649E8A024
:101F2000133107F077FAD44966221331EFA007F096
:101F3000A5FBFEF765FB064608F0C7FC50B9CE4985
:101F4000EBA0133107F066FACB4966221331E7A004
:101F500007F094FBFEF754FB074607F07BF850B1FF
:101F6000C549F1A0133107F055FAC3496622133170
:101F7000DEA007F083FB3846FEF746FB3046FEF74F
:101F800043FB2846FEF740FB002608F09EFC054672
:101F9000FEF736FB0746B04605F1140A04F1100BB4
:101FA00005F14C0926E00398F0B12846C5F83080C9
:101FB00008F068FE5146584600F0B4FA039800282D
:101FC00007DD03AA0021484609F09FF9484609F0B9
:101FD00015F93846FEF718FB08F061FB2E6BFEF78B
:101FE0000FFB074636B102E06FF001063846FEF7F8
:101FF0000BFB43E060890004D5D46289E168C2F339
:102000000E02019841F8320062890423C2F30E02E5
:10201000E16803EBC202029888506089D90301EBA2
:10202000F0304FEA70406081A288C0F30E01914207
:1020300002D16FF30E006081208920F400412181DC
:102040006089C0F30E028A4202D140F400406081F0
:10205000A06904F11801884208D0143808F0F4FC93
:102060003846FEF7D1FA08F01AFB07E03846FEF7CB
:10207000CBFA226A12B102212046904704B03046C2
:10208000BDE8F09F10B5040006D17B494FF4ED7216
:1020900074317AA007F0F2FA80492068884206D0AD
:1020A000754940F2DB1274317DA007F0E7FA208910
:1020B000000401D5002010BDFEF7A2FA0246608997
:1020C000C0F30E012089C0F30E00814201D8A3881D
:1020D0001944081A04B21046FEF796FAA0B210BDD1
:1020E0002DE9FF4F83B090468946040005D162492F
:1020F000D722263161A007F0C1FA684920688842DA
:1021000005D05D49D822263165A007F0B7FAB9F1AC
:10211000000F05D15849D92226318DA007F0AEFA1B
:10212000B8F1000F05D15449DA2226318DA007F00D
:10213000A5FA069800283BD0FEF762FA064608F09A
:102140003CFB50B14C495EA0263107F063F94A4987
:10215000DD22263165A007F091FAFEF751FA054617
:1021600008F0B3FB50B9444961A0263107F052F999
:102170004149DD2226315DA007F080FAFEF740FAE2
:10218000074606F067FF50B13B4967A0263107F0CC
:1021900041F93949DD22263154A007F06FFA38465B
:1021A000FEF732FA2846FEF72FFA3046FEF72CFAF1
:1021B000002608F08AFB0546FEF722FA074605F1DD
:1021C0001400019004F11800B24605F14C0B009088
:1021D00026E00698F0B12846C5F830A008F052FD78
:1021E000DDE9000100F09EF90698002807DD06AA47
:1021F0000021584609F089F8584608F0FFFF384694
:10220000FEF702FA08F04BFA2E6BFEF7F9F90746D3
:1022100036B102E06FF001063846FEF7F5F9D1E07D
:1022200020890004D5D42189E068C1F30E0104227D
:1022300050F83110C9F800102189E068C1F30E018F
:1022400002EBC1014158C8F800102089D10301EB0D
:10225000F0304FEA70402081A288C0F30E01914215
:1022600002D16FF30E002081608920F4004060816C
:102270002189C1F30E027DE099D30008717565755F
:102280006520213D2052545F4E554C4C000000000B
:1022900073697A65203E2030000000000E0EADBE4E
:1022A00071756575652D3E6D61676963203D3D20E3
:1022B0004441544151554555455F4D4147494300BF
:1022C00046756E6374696F6E5B25735D3A20736348
:1022D000686564756C6572206973206E6F74206127
:1022E0007661696C61626C650A0000003000000074
:1022F00046756E6374696F6E5B25735D20736861EC
:102300006C6C206E6F74206265207573656420624A
:1023100065666F7265207363686564756C657220AD
:1023200073746172740A000046756E6374696F6E2F
:102330005B25735D207368616C6C206E6F74206226
:1023400065207573656420696E204953520A000048
:10235000646174615F70747220213D2052545F4E3D
:10236000554C4C0073697A6520213D2052545F4ED4
:10237000554C4C00904202D141F40040208120464F
:10238000FFF780FEE188884214D8206904F110012B
:10239000884208D0143808F057FB3846FEF734F965
:1023A00008F07DF902E03846FEF72EF9226A4AB1BC
:1023B000032105E03846FEF727F9226A12B1012110
:1023C0002046904707B03046BDE8F08F70B51546FF
:1023D0000E46040006D1574940F24F12AFF2641086
:1023E00007F04CF954492068884206D051494FF40F
:1023F000A872AFF2541007F041F92089000402D509
:102400006FF0030070BDFEF7FBF82289E168C2F3AC
:102410000E02042351F8321031602289E168C2F3C0
:102420000E0203EBC20289582960FEF7EDF8002086
:1024300070BD2DE9F041040007D13E4940F26F1212
:102440001331AFF2C81007F019F93B4920688842F0
:1024500007D038494FF4B8721331AFF2BC1007F00F
:102460000DF9FEF7CDF80246208961896FF30E0061
:1024700040F400402081080C000460811046FEF703
:10248000C3F808F076F94FF0FF3504F118060AE0BA
:10249000FEF7B6F80746A069C561143808F0D4FA0B
:1024A0003846FEF7B1F8A069B042F1D104F1100648
:1024B0002069B0420BD0FEF7A3F807462069C5613A
:1024C000143808F0C1FA3846FEF79EF8F0E708F035
:1024D0005BF9BDE8F04108F0E2B810B5040007D19F
:1024E00014494FF4DF722731AFF2702007F0C6F8BD
:1024F00011492068884207D00E4940F2BF122731A7
:10250000AFF2642007F0BAF82046FFF792FFFEF71B
:1025100077F800212160FEF777F8E06807F0B1F95D
:10252000002010BD4268116042684A604160086046
:1025300070470000D1D300080E0EADBE040004D1D8
:102540003C22F749F7A007F099F8FEF759F82568FB
:102550000646A54209D108F0B8F908F093FB3046C9
:10256000FEF752F808F09BF8EFE7284600F07EFAF5
:102570002561288A002720F00100288230462F6438
:10258000FEF742F8D5E9022128469047276108F076
:10259000F0F804F11405284604F066FF801C02D010
:1025A00008F0F2F8D1E7284604F060FFF3E770B5D1
:1025B000056C04462DB9DA49BA221831D9A007F0C2
:1025C0005DF8FEF71DF8064604F1140008F086FDDC
:1025D000208A20F002002082204600F047FA286975
:1025E000A04207D02146686800F039FA208A40F0FE
:1025F00001002082286930B9686B90F8341001F02E
:102600000701022904D03046BDE87040FDF7FCBF49
:1026100008F01AFA3046FDF7F7FFBDE8704008F001
:102620003EB8F7B582B00C460546FDF7E9FF074610
:10263000204600F01BFA208A20F001012182049834
:1026400080B16FF0004290424DD2890704F1140628
:102650002FD5304608F029FE04AA0021304608F0A4
:1026600054FE33E02869A0420AD02146686800F091
:10267000F6F9208A40F0010020822564002401E060
:102680006FF00604286930B9686B90F8341001F0D7
:102690000701022905D03846FDF7B6FF204605B0F0
:1026A000F0BD08F0D1F93846FDF7AEFF07F0F7FFAF
:1026B000F4E70421CDE9000123469F4A9FA130465B
:1026C00008F0DEFC208A40F00200208225642146CA
:1026D000E86800F0C4F93846FDF796FF304608F088
:1026E0008DFD0020DBE73846FDF78EFF4FF0FF3011
:1026F000D5E72DE9F0410C460546FDF781FF06467A
:10270000204600F0B3F9208A20F0010020828007E3
:102710000BD504F11400074608F0C7FD384608F051
:10272000DDFC208A20F0020020822869A04201D02E
:10273000002501E06FF00605002020643046FDF71B
:1027400063FF2846BDE8F08170B516460D460400CB
:1027500005D17349E32236317AA006F08FFF2DB9F7
:102760006F49E42236317BA006F088FF6460246064
:1027700000202064C4E902562082608270BD2DE9E9
:10278000FC41074615460E46382006F08EFF040031
:102790001BD06460246004F10800E060A0600020A9
:1027A00003460246206171A104F1140004F0F3FC19
:1027B0000A20CDE90050334622466E49384608F0DB
:1027C000EBF9606320B108F076F92046BDE8FC81A2
:1027D000204607F056F80020F8E770B5040006D14F
:1027E0004F494FF4D772D5314EA006F047FF07F09E
:1027F000C0FF02E02046FFF77CFF2168A142F9D12B
:1028000004F10805A168A94203D02046FFF771FF33
:10281000F8E707F0B9FF002070BD10B5040006D13D
:102820003F4940F21D1243313EA006F027FF2046EB
:10283000FFF7D3FF606B08F0D3F904F1140004F044
:10284000D9FC204607F01DF8002010BD70B50C46DD
:10285000050006D1324940F23312583131A006F05A
:102860000DFF34B92E494FF49A72583135A006F055
:1028700005FF21462846BDE870400022D1E670B52C
:1028800014460D46060006D125494FF4A5726C3159
:1028900024A006F0F3FE35B9214940F24B126C3109
:1028A00028A006F0EBFE6FF00040844206D31C49DE
:1028B0004FF4A6726C3130A006F0E0FE22462946A5
:1028C0003046BDE87040ACE670B50D46040006D158
:1028D00013494FF4AF72853112A006F0CFFE35B91F
:1028E0000F4940F25F12853116A006F0C7FEFDF7D2
:1028F00087FE0646284600F0B9F82946204600F033
:10290000AEF8206930B9606B90F8341001F007011F
:1029100002293DD03046FDF777FE002070BD000053
:102920001FD40008717565756520213D2052545FE4
:102930004E554C4C00000000AF250008776F726BBD
:1029400000000000776F726B20213D2052545F4ED3
:10295000554C4C00776F726B5F66756E6320213D3E
:102960002052545F4E554C4C000000007771756545
:10297000756500003D2500087469636B73203C2079
:1029800052545F5449434B5F4D4158202F20320031
:1029900008F05AF83046FDF737FE07F080FEBCE736
:1029A00070B50D00044606D135494FF4C172AFF23F
:1029B0006C0006F063FE34B9314940F28312AFF285
:1029C0009C0006F05BFE29462046BDE8704090E67C
:1029D00070B50D46040007D1294940F29312193110
:1029E000AFF2C00006F04AFE3DB925494FF4CA7265
:1029F0001931AFF2B00006F041FE2069A84206D1BD
:102A00004FF0FF3104F1140004F098FC03E0294674
:102A10002046FFF76EFE002080E70A46014619486F
:102A200000682CE70146174800684DE70146154845
:102A30000068B5E710B5134C206870B917224FF441
:102A4000006111A0FFF79BFE206030B90C494FF4E4
:102A5000FC7254310FA006F011FE002010BD026878
:102A6000516002680A60016048607047D0E9001256
:102A70004A60D0E9001211604060006070470000B9
:102A8000BDD400082C00002073797320776F726B1F
:102A9000710000007379735F776F726B7120213D55
:102AA0002052545F4E554C4C0000000070B51E463D
:102AB0001546040004D119227D497EA006F0DEFDF2
:102AC0000DB1042E01D0002070BD206C29888268D1
:102AD000204690476880304670BD70B51E4615464A
:102AE000040005D1724928220A3172A006F0C6FD01
:102AF0000DB1042E01D0002070BD206C6A88298899
:102B0000436820469847304670BD70B514460500AE
:102B100005D167493822153166A006F0AFFD3CB1FA
:102B2000286C62882188036828469847002070BD79
:102B30004FF0FF3070BD10B50C46624919230B757C
:102B40000023CB610B624B628B62CB625E4B0B63EB
:102B50005E4B4B635E4B0C64C1E90E3201460322AF
:102B6000584804F002F8002010BD2DE9F843554CF8
:102B700080461D46206C16460F4628B94C496B22EC
:102B8000223154A006F07AFD206CC4683CB1334673
:102B90003A4641464B480095A047BDE8F8836FF0A0
:102BA0000500FAE770B5474C0546206C28B9404946
:102BB0007522343147A006F061FD206C026922B114
:102BC0002946BDE870403F4810476FF0050070BDD2
:102BD00070B53C4C06460D46206C28B934497F221E
:102BE00046313CA006F04AFD206C43692BB12A46D1
:102BF0003146BDE87040334818476FF0050070BD9E
:102C000070B5304C06460D46206C28B928498A22FA
:102C1000583130A006F032FD206C2A463146036858
:102C2000BDE870402748184770B5264C06460D464B
:102C3000206C28B91E499122643126A006F01EFDA1
:102C4000206C2A4631464368BDE870401D4818474D
:102C500070B51C4C0546206C28B915499822713175
:102C60001CA006F00BFD206C29468268BDE8704070
:102C70001448104770B5134C0546206C28B90C4910
:102C80009F227D3113A006F0F9FC2878502805D04A
:102C90000749A0227D3115A006F0F0FC206C816967
:102CA00019B12846BDE8704008476FF0050070BDB7
:102CB0002CD5000870696E20213D2052545F4E557E
:102CC0004C4C00004C020020AD2A0008DB2A000812
:102CD0000B2B00085F68775F70696E2E6F70732032
:102CE000213D2052545F4E554C4C00006E616D6585
:102CF0005B305D203D3D20275027000010B5F74C8C
:102D0000206800280AD1F6A006F084FBF84806F0F7
:102D100081FBF8A006F07EFB0120206010BD70B59D
:102D2000C46C05462CB940F27B12F449F4A006F0BD
:102D3000A5FCA188E088814206D1A068002802D0C5
:102D4000A86CC0F38F2070BD04D8A0EB0100A96C63
:102D5000C1F38F21A1EB000070BD2DE9F0471746AC
:102D60008846050002D0B8F1000F06D1E34940F2D1
:102D7000E9125731E7A006F081FCFDF741FC8146DE
:102D8000EF49A86C084202D1EC6C3CB10DE028463A
:102D9000EE6CFFF7C4FF04466EB333E0D74940F250
:102DA000F3125731E7A006F069FC2068012818D01B
:102DB00001202060286C006930B9D0494FF4FC72C2
:102DC0005731E5A006F05AFC286C01233A46046905
:102DD00041462846A0474846FDF716FC3846BDE860
:102DE000F0876FF006044846FDF70EFC204606F01B
:102DF0003EFB0020F3E7C1494FF402725731C0A0F7
:102E000006F03CFCA74200DA3C46F088A96C0219A7
:102E1000C1F38F218A4204D23168224601444046E0
:102E20000EE00A1A31680144404606F05CFBF08867
:102E3000A96C0219C1F38F21521A4144081A316852
:102E400006F051FB2146284600F075FC4846FDF788
:102E5000DBFB2046C3E770B504004FF0000506D148
:102E6000A64940F24A226631C5A006F007FC0021BF
:102E7000E1642165216C20460A681AB100F1440121
:102E800090470546284670BD2DE9F0410D460400E7
:102E90004FF0000706D1994940F25D227531B8A084
:102EA00006F0ECFBA9056FF0070002D5E18A890561
:102EB0007ED5290502D5E18A090579D5E90502D52E
:102EC000E18AC90574D5690502D5E18A49056FD53E
:102ED000680602D4207E400600D54027E8B2208351
:102EE000E16C4FF0000821B1E90571D540F4807123
:102EF00072E0E8052AD5A06CC0F38F200C3006F0F4
:102F0000D4FB060006D17D494FF41F7275317CA0B9
:102F100006F0B4FB06F10C003060A16CC1F38F2207
:102F2000002106F0BDFAA6F80480A6F80680C6F8CF
:102F30000880E664208B4FF4807240F48071218316
:102F4000206C102143682046984746E0A80544D5E8
:102F50007B49A06C084205D1042006F0A6FB0600C0
:102F600008D00EE0C0F38F200C3006F09EFB060068
:102F70000BD011E0614940F28F22753171A006F04B
:102F80007DFBC6F80080E6641FE05C494FF42672C2
:102F900075315BA006F072FB06F10C003060A16C8D
:102FA000C1F38F22002106F07BFAA6F8048000E02E
:102FB00067E0A6F80680C6F80880E664206C4FF447
:102FC00000720321436820469847208B02E0FFE708
:102FD000A90502D540F400712183206D00284FEA35
:102FE000455005D0002842DA208B40F4806043E051
:102FF000002819DA0C2006F058FB050006D13F49DD
:1030000040F2BB22753162A006F038FB2846FEF77D
:1030100003FE2565208B4FF4806240F4806121839C
:10302000206C102143681FE0280526D5282006F0D3
:103030003CFB050006D1314940F2CA22753159A046
:1030400006F01CFB002304220821281DC5F800807F
:10305000FEF714FF2565208B4FF4006240F40061F9
:103060002183206C032143682046984705E028050A
:1030700003D5208B40F400602083208B38432083CD
:103080000020BDE8F08170B5040006D11B4940F274
:10309000EE2284313AA006F0F1FAA07E012801D98F
:1030A000002070BD208B4FF00006C10514D5206CA8
:1030B0004FF480721121436820469847208B20F4FA
:1030C00080712183E56C15B940F2FD2293E028461A
:1030D00006F0D7FBE66494E06EE0000030000020CC
:1030E0001B5B33336D5B572F554152545D200000FD
:1030F000F8E800081B5B306D0A000000F2D50008FC
:1031000072785F6669666F20213D2052545F4E558C
:103110004C4C00002873657269616C20213D20527F
:10312000545F4E554C4C292026262028646174613A
:1031300020213D2052545F4E554C4C290000000088
:1031400000FCFF0372785F646D6120213D205254C2
:103150005F4E554C4C00000073657269616C2D3EEA
:103160006F70732D3E646D615F7472616E736D6913
:103170007420213D2052545F4E554C4C00000000FD
:1031800064657620213D2052545F4E554C4C000022
:1031900074785F6669666F20213D2052545F4E55FA
:1031A0004C4C000074785F646D6120213D205254C6
:1031B0005F4E554C4C000000800522D5206C4FF42A
:1031C00000721121436820469847208B20F400713B
:1031D0002183FE49A06CE56C084208D1002D7FF4E4
:1031E00076AFFB4940F20F32AFF2A80006E0002DA7
:1031F000F5D14FF44672F649AFF2FC0006F03EFA04
:1032000065E7208B410518D5206C4FF480621121B1
:10321000436820469847208B20F480612183256DE8
:1032200035B9EB4940F22932AFF29C0006F026FA9C
:10323000284606F026FB266519E0000517D5206C08
:103240004FF400621121436820469847208B20F4F8
:1032500000612183256D35B9DD4940F23A32AFF284
:10326000BC0006F00BFA281DFFF737F9E0E7206CE9
:1032700000220421436820469847E08A20F010008D
:10328000E0820DE72DE9F0411C461546060007D106
:10329000CF4940F251321031AFF21C1006F0EEF976
:1032A0004CB1318B3046CA0507D522462946BDE8C8
:1032B000F04100F0BAB90020E3E6890504D52246C2
:1032C0002946BDE8F04148E52EB9C149E122C2399D
:1032D000C0A006F0D3F92746306CC1683046884755
:1032E000411C09D005F8010B317E641E490601D549
:1032F0000A2801D0002CEFD1381BC2E62DE9F0419D
:103300001C461546060007D1B14940F26B321F3109
:10331000AFF2941006F0B2F94CB1318B30464A0549
:1033200007D522462946BDE8F04100F0C7B9002084
:10333000A7E6090520D5376D4FF0FF332246294611
:10334000381DFEF7CEFD10B106F091F8EFE7FDF75E
:1033500057F9396801290BD001213960FDF754F97B
:10336000306C02232246076929463046B84701E0FF
:10337000FDF74AF9204684E62EB99549F822B2397C
:1033800094A006F07BF9274628780A2807D1307EDA
:10339000400604D5306C0D21826830469047306C71
:1033A0002978826830469047641E05F10105EBD10B
:1033B000384666E62DE9F04114460E4607004FF008
:1033C000000507D1824940F2E5322F31AFF250209B
:1033D00006F054F93846012E0FD0022E09D0032EE4
:1033E00010D0016C22464B68314698470546284666
:1033F00047E6F88A40F0200002E0F88A20F020003A
:10340000F882F4E7002CF2D06168836CC1F38F225C
:10341000C3F38F239A4203D0827E0AB1072030E69D
:103420002268C0E91121817E0029E0D0016C0A6880
:1034300021469047DBE72DE9F0411C4615460E4634
:10344000070006D1624940F2EB42413161A006F02B
:1034500015F900213975F961396263497962634967
:10346000B9626349F96263493963634938467963EC
:103470006249C0E90E14AAB23146BDE8F04103F03A
:1034800074BB2DE9FE430446C8B200274FF0010883
:1034900001281CD0022869D0032877D0042814D131
:1034A000256D00236A4602A9281DFEF719FE6A460B
:1034B00001A9281DFEF78AFF00285CD02F60226A30
:1034C000002A02D0204602999047BDE8FE83E56CB1
:1034D0003DB93F4940F217525731AFF2DC3006F0A8
:1034E000CDF8206CC168204688470646401C24D091
:1034F000FDF786F88146A98828684654A888401CAC
:1035000080B2A880A16CC1F38F21884200D3AF8024
:10351000A988E88881420CD1401C80B2E880C5F8B7
:103520000880A16CC1F38F21884200D3EF80FFF7A0
:10353000E5FB4846FDF768F8D3E7E0690028C4D00A
:10354000FDF75EF80246A888E988884201D3451A4B
:1035500004E0081AA16CC1F38F210D1A1046FDF783
:1035600053F8002DB1D02946E26929E0206DBDE86D
:10357000FE43FEF7F0BBC5F80080206CDDE90021BA
:10358000056902232046A84799E7FFE70E120F4975
:10359000A06C084202D1E56CBDB138E0FDF730F80F
:1035A00005463146204600F0F3F82046FFF7B7FB0A
:1035B00006462846FDF728F8E269002A85D03146FC
:1035C00003B02046BDE8F043104719E000FCFF03BC
:1035D00076D6000873657269616C20213D205254D3
:1035E0005F4E554C4C000000572E0008892E0008F5
:1035F0008730000885320008FD320008B533000826
:1036000080494FF4AF62AFF2C44006F037F8E0698A
:1036100028B940F27A527B497BA006F02FF8E26984
:103620003146204690472F604FE72DE9F047154679
:103630000F46060007D1734940F21712F939AFF26D
:103640006C0006F01BF8F46CA8464FF0000A7CBB37
:103650006C4940F21B12F939AFF25C5006F00EF8DB
:1036600026E000BFFCF7CCFF0146E088A28890422C
:1036700001D1A26882B1226812F80090401C80B289
:10368000E080B26CC2F38F22904201D3A4F806A06E
:10369000A068012804D005E00846FCF7B5FF09E062
:1036A000C4F808A00846FCF7AFFF07F8019B6D1EA1
:1036B000002DD7D1A8EB0500BDE8F0872DE9F04734
:1036C00014460E46050007D14E4940F24712EA392A
:1036D000AFF2001005F0D2FFD5F8508027465FEA20
:1036E00008004FF0FF391DD1464940F24B12EA392C
:1036F0004FA005F0C3FF15E030780A2809D1287ED5
:10370000400606D5286C0D21826828469047401C4B
:103710000CD0286C3178826828469047401C05D030
:10372000641E761C002CE7D13846C5E74946404662
:10373000FEF784FAF6E770B5C46C0D4606463CB950
:1037400030494FF4D372BE39AFF24C6005F096FFAA
:103750003046FFF7E4FAA84206D22A4940F2A712FF
:10376000BE3937A005F08AFFA06810B10DB1002066
:10377000A060E088284481B2E180B06CC0F38F2063
:10378000814204D3B1FBF0F200FB1210E08070BD67
:1037900070B5C46C0E4605463CB91A494FF4DE724A
:1037A000A139AFF2A46005F069FFE288A088012387
:1037B000824230440FD880B2A080A96CC1F38F211F
:1037C000884217D3B0FBF1F501FB1500A0809042B1
:1037D00010D3A36011E081B2A18091420AD3A86CFA
:1037E000C0F38F208142F4D3B1FBF0F200FB121042
:1037F000A080EEE7A068012803D1FFF77FFAA08838
:10380000E08070BDCDD6000873657269616C2D3E95
:10381000706172656E742E72785F696E646963613F
:10382000746520213D2052545F4E554C4C000000E1
:10383000747820213D2052545F4E554C4C000000BE
:103840006C656E203C3D2072745F646D615F6361E6
:103850006C635F7265637665645F6C656E28736523
:103860007269616C2900000070B515460E46044669
:1038700000F0AEFA00280CD10122314604F14800D4
:1038800003F016FF00206564E066012084F8400024
:10389000002070BD70B504461D460E46104603F06C
:1038A00061F910B1017D0C2902D04FF0FF3070BDDD
:1038B00020643146204600F0E0FA0028F7D10822C3
:1038C000002104F1440005F0EBFD0020E56370BD2C
:1038D00070B50D46040004D14D22FB49FBA005F054
:1038E000CDFE687884F84500287884F8440068683C
:1038F000A064206C98B14FF0FF31483003F08CFF8A
:1039000068B9206CC16EA14205D1406C04F144013C
:10391000026820469047206C483004F03FF80020B1
:1039200070BD2DE9F04385B01F46DDF8309090461C
:103930000D46040005D1E4496F221131E3A005F0E2
:103940009DFE206C28B9E04970221131E4A005F0F9
:1039500095FE206C4FF0FF31483003F05DFF6FF0B3
:10396000070618B1304605B0BDE8F083206CC16E83
:10397000A14208D0406C04F14401026820469047FF
:1039800030BB206CC46600950025CDE90158049831
:10399000694620F0020040F00100CDE90350206CA0
:1039A000406C42682046904790B10498CDE900757C
:1039B00020F00100CDF8089040F00200CDE903505E
:1039C000206C6946406C42682046904700B100E098
:1039D0003546206C483003F0E1FF2846C3E72DE967
:1039E000F04385B01F46DDF8309090460D46040048
:1039F00005D1B549BA222731B4A005F03FFE206CAD
:103A000028B9B149BB222731B5A005F037FE206C9B
:103A10004FF0FF31483003F0FFFE6FF0070608B1AA
:103A20003046A0E7206CC16EA14208D0406C04F182
:103A3000440102682046904720BB206CC466009574
:103A40000025CDE901580498694620F0020040F0B5
:103A50000100CDE90350206C406C4268204690473D
:103A600080B18DE8A0020498694620F0010040F082
:103A70000200CDE90350206C406C4268204690471C
:103A800000B100E03546206C483003F087FF28463F
:103A900069E72DE9F04186B01D4616460F46040041
:103AA00006D189494FF482723D3188A005F0E6FDC8
:103AB000206C30B9844940F205123D3188A005F0F0
:103AC000DDFD206C4FF0FF31483003F0A5FE6FF0B4
:103AD000070830B1404605F0CAFC002006B0BDE83A
:103AE000F081206CC16EA1420DD0406C04F1440104
:103AF00002682046904720B1404605F0B8FC0025FA
:103B000015E0206CC4660097CDE90165049869460C
:103B100040F00300049000200390206C406C426849
:103B200020469047050002D1404605F0A0FC206CDD
:103B3000483003F033FF2846D0E770B50D46040047
:103B400006D1614940F23F124D3160A005F096FD6B
:103B50005DB3206C4FF0FF31483003F05DFE20B1C3
:103B60006FF0060005F083FC1FE0002005F07FFCED
:103B7000206C6FF00706C16EA14208D0406C04F1C2
:103B8000440102682046904788B9206CC466206CC6
:103B90002946406C42682046904740B1ED68002DB0
:103BA000F5D1206C483003F0F9FE284670BD304650
:103BB00005F05DFCF5E770B5040006D142494FF40D
:103BC000BE72653141A005F059FD206C30B93E4907
:103BD00040F27D12653142A005F050FD206C4FF09F
:103BE000FF31483003F018FE050006D06FF00604E0
:103BF000204605F03CFC204670BD002005F037FC57
:103C0000206CC16EA14210D0406C04F144010268E6
:103C10002046904705000AD06FF00705284605F0BA
:103C200026FC206C483003F0B9FE284670BD206C9D
:103C3000C466FAE710B5040006D123494FF4D272E6
:103C4000753122A005F01AFD206C30B91E4940F2F2
:103C5000A512753122A005F011FD206CC06EA042A6
:103C600006D019494FF4D372753123A005F006FD33
:103C7000206C483003F092FE002010BD10B586B0D5
:103C8000040006D1104940F2B31288310FA005F0AC
:103C9000F5FC206C30B90C494FF4DA72883110A071
:103CA00005F0ECFC14220021684605F0F9FB0498AD
:103CB000694640F001000490206C406C4268204648
:103CC000904706B010BD0000DED600086465766936
:103CD000636520213D2052545F4E554C4C0000003E
:103CE0006465766963652D3E62757320213D2052BF
:103CF000545F4E554C4C00006465766963652D3EFB
:103D00006275732D3E6F776E6572203D3D20646550
:103D1000766963650000000010B586B0040006D126
:103D20000F4940F2C312AFF25C0005F0A7FC206C13
:103D300030B90B494FF4E272AFF25C0005F09EFC23
:103D400014220021684605F0ABFB0498694640F058
:103D500002000490206C406C426820469047B0E717
:103D600072D7000870B51D461646040004D116220D
:103D7000504951A005F082FCE06E20B917224D4950
:103D800051A005F07BFC2B463246E06EBDE870404A
:103D90000021FFF77EBE70B51E461546040005D112
:103DA00044492422153144A005F068FCE06E28B98E
:103DB00040492522153144A005F060FC33462946D0
:103DC000E06EBDE870400022FFF763BE0020704740
:103DD00070B50D46040005D1364949222B3136A075
:103DE00005F04CFC0C21217500216162A162E162A9
:103DF0003B4921633B4961633B49A1632046294616
:103E0000BDE87040032202F0B0BE70B51D461646F4
:103E1000040005D127496822423134A005F02EFC68
:103E2000206C28B923496922423135A005F026FCCF
:103E30002B4632462046BDE870400021FFF729BEE0
:103E400070B51E461546040005D11A497622563132
:103E500026A005F013FC206C28B9164977225631AC
:103E600027A005F00BFC334629462046BDE87040EC
:103E70000022FFF70EBE0020704770B50D4604000B
:103E800005D10C499A226B3123A005F0F7FB0D21D7
:103E9000217500216162A162E16223492163234906
:103EA00061632349A16320462946BDE8704003228F
:103EB00002F05BBE81D7000862757320213D20525D
:103EC000545F4E554C4C00006275732D3E6F776EFB
:103ED000657220213D2052545F4E554C4C0000002D
:103EE000653D0008973D0008CD3D00086465766992
:103EF000636520213D2052545F4E554C4C0000001C
:103F00006465766963652D3E62757320213D20529C
:103F1000545F4E554C4C000064657620213D205284
:103F2000545F4E554C4C00000B3E0008413E0008CB
:103F3000773E0008FEE770B5234864214FF0FF3557
:103F40000068B0FBF1F1491EB1F1807F0AD24FF059
:103F5000E02461610F21284600F025F80020A061CF
:103F6000072020612846BDE87040002100F01BB802
:103F700010B505F04FF802F043FDBDE8104005F024
:103F800059B8124910B54FF000600860FFF7D3FF31
:103F900002F086FD0EA005F007FCBDE810400E49BA
:103FA0000E4805F032BC0907090E002806DA00F0B9
:103FB0000F0000F1E02080F8141D704700F1E020B0
:103FC00080F80014704700004802002008ED00E06F
:103FD000756172743200000000800020181100200A
:103FE0000948804709480047FEE7FEE7FEE7FEE78D
:103FF000FEE7FEE7FEE7FEE7FEE7FEE704480549C9
:10400000054A064B704700006BB6000831010008F6
:104010001809002018110020180D0020180D00208C
:1040200010B540F2197007F03BFC40F2026007F057
:1040300037FCFD4C4FF4006303224821204608F072
:10404000C5F8A31403221821204608F0BFF84FF446
:10405000C06007F025FCBDE8104001214FF4EB10D3
:1040600008F022B92DE9F04188B08846060004D155
:104070006A22EE49EEA005F001FBB8F1000F04D171
:104080006B22EA49EEA005F0F9FAE84F0025092174
:10409000C43FD8F800002C46361F00BF05EB850250
:1040A00057F82220824203D06D1C8D42F6D325465C
:1040B0006946002008F0C3FB03A9012008F0BFFBFC
:1040C0003068406808F0ACFB8DF8084001948DF82A
:1040D000094098F80C004FF0010810F0FF0006D0DE
:1040E000012807D0022838D0032806D103E08DF834
:1040F000004002E002208DF8000005EB850007EB90
:1041000080008DF8004001798DF80110017B8DF859
:104110000210017A8DF80310008AADF80A003068A9
:104120006946406808F0C9FBADF81640ADF8184084
:10413000ADF80C40ADF81040ADF81A80ADF80E4067
:10414000ADF81240ADF814408DF81C8003A808F0BB
:1041500033FC08B00020BDE8F0818DF80080CCE78A
:104160002DE9F04F85B014460F46050005D1AF4943
:10417000A9220C31AEA005F081FA2CB9AB49AA22D4
:104180000C31B3A005F07AFA281F103F00684FF4F5
:10419000805C4FF4007A4668B1484FF4006B4FF0F2
:1041A000FF3205F144014FF480784FF48069082F05
:1041B0004AD2DFE807F04A044998E9DBFEFD4445AE
:1041C0001DD1864205D1142008F03FF9152008F0D2
:1041D0003CF90221304608F006FE0421304608F082
:1041E00002FE0821304608F0FEFD1021304608F09E
:1041F000FAFD2021304608F0F6FD402121E04C4533
:1042000006D1864202D1132008F01FF9012118E0DF
:10421000644519D1864202D1162008F016F94146AC
:10422000304608F0E0FD5146304608F0DCFD4946D6
:10423000304608F0D8FD5946304608F0D4FD4FF41A
:104240000041304608F0CFFDEBE0444521D18642E5
:1042500009D100220421142008F0AFF80022042123
:10426000152008F0AAF80221304608F0B8FD042114
:10427000304608F0B4FD0821304608F0B0FD1021AA
:10428000304608F0ACFD2021304608F0A8FD402162
:1042900025E04C4508D1864204D100220421132098
:1042A00008F08BF801211AE064451BD1864204D145
:1042B00000220421162008F080F84146304608F01C
:1042C0008EFD5146304608F08AFD4946304608F0DA
:1042D00086FD5946304608F082FD4FF400413046D5
:1042E00008F07DFD9DE000253CE000BFA16805EBE6
:1042F0008500082202EB8002895AADF80A10A168F5
:1043000051F82010C90FADF80C100121ADF80E10B6
:10431000A16851F82010490BADF80010A16851F8C0
:104320002010CA00C1F3407342EA8302C1F38071D6
:1043300042EA4101ADF802100421A26801EB8000BD
:104340001158090CADF80410A168085AADF8060020
:104350000020ADF8080020798DF81000684608F0BC
:104360002BFB6D1C2068A842C0D85AE02CB1012C50
:1043700003D0022C01D0032C2FD195F85000A0427D
:104380004FD085F8504034E0364884421DD036483E
:1043900084421AD03548844217D0B4EB600014D060
:1043A000A4F5F430483810D0314884420DD001E0F3
:1043B00024E00FE0B4EB600007D0A4F59C40203867
:1043C00003D0A4F51C50103807D1686CA04228D047
:1043D0006C640EE0012C04D01CB1104605B0BDE8A1
:1043E000F08FB5F85000C0F30720A04219D085F82F
:1043F000514005B02846BDE8F04F33E6B0693C2295
:10440000010EE965C0F307412966C0F30211C5F842
:10441000941000F00700686605F15C01204605F085
:1044200062F80020DAE7000000080140C8D8000860
:1044300063616E20213D2052545F4E554C4C00006C
:1044400063666720213D2052545F4E554C4C00005E
:1044500061726720213D2052545F4E554C4C000044
:104460000064004040420F0000350C0020A107000E
:10447000A086010030B585B00C460546142168467B
:1044800008F0F7FD35B9FD494FF4C472AFF2600092
:1044900005F0F4F8A54205D140F28912F749F8A0D9
:1044A00005F0ECF855F8040C45682079082805D982
:1044B00040F28F12F149F5A005F0E0F82068800085
:1044C00007D400208DF80800206820F0604000909C
:1044D00006E004208DF80800206820F0604001907C
:1044E0002068022101EA50708DF8090020796946A0
:1044F00000F00F008DF80A00284608F012FB032890
:1045000002D0002005B030BD4FF0FF30FAE770B5A3
:1045100086B00D46044616461421684608F0A9FDEB
:104520003CB9D6494FF4D5720D31AFF2FC0005F01D
:10453000A5F835B9D14940F2AB120D31D7A005F03D
:104540009DF854F8040C2C46F1B240686A4608F015
:1045500084FB9DF80800002820680ED040F0005031
:104560002060019961F31C0020609DF8090000287B
:10457000206807D040F0804006E020F00050206026
:104580000099EFE720F0804020609DF80A0020713C
:104590009DF813000822401C4008A07104F1080097
:1045A0000DF10B0104F09FFF06B0002070BD2DE956
:1045B000F0410F46040006D1B0494FF4E7721A31BA
:1045C000BAA005F05BF8201F012600684FF006082E
:1045D0004568EFB3012F7CD10121284608F092FBFA
:1045E00048B1B349284608F015FC20B140F201114A
:1045F0002046FDF758F840F203463146284608F0B9
:10460000F6FB70B1AA4F28464137394608F002FC44
:1046100038B13146284608F0F5FB3946284608F0FF
:1046200027FC40F204463146284608F0E0FB00280B
:104630004FD09F4F28468237394608F0EBFB0028C1
:1046400047D03146284608F0DDFB3946284600E0D1
:1046500008E008F00DFC4FF483712046BDE8F041FE
:10466000FDF721B80021284608F04CFB70B14CF250
:1046700081073946284608F0CDFB38B1394628462F
:1046800008F0F6FB31462046FDF70DF840F2033600
:104690003146284608F0ABFB70B14CF2C2073946F0
:1046A000284608F0B7FB38B13146284608F0AAFB87
:1046B0003946284608F0DCFB4FF441773946284656
:1046C00008F095FB002804D04CF20316314628462A
:1046D00000E00DE008F09EFB002809D0394628468E
:1046E00008F090FB3146284608F0C2FB4146B4E78B
:1046F00031E570B5040006D1604940F20F22263141
:104700006AA004F0BBFF201F4FF40046006831464A
:104710004568284608F07EFB90B13146284608F0EF
:10472000A7FB40F2012627E03146284608F06AFB45
:10473000022100E003212046BDE87040FCF7B3BF32
:104740004FF402463146284608F064FB30B131464A
:10475000284608F08DFB40F209260DE04FF4044690
:104760003146284608F056FB0028E3D0314628465B
:1047700008F07EFB40F211263146284608F037FB50
:104780000028D7D0D0E770B5040006D13B494FF4DC
:104790001272323145A004F071FF201F0068456895
:1047A000284608F011FB07282DD2DFE800F02C2C5A
:1047B00021042525280040F203263146284608F02A
:1047C00016FB08B103210FE040F20B21284608F048
:1047D0000EFB10B140F2031106E040F2132128460F
:1047E00008F005FB78B131462046FCF75CFF0AE093
:1047F000E06F401CE06706E054F8840F01E054F8D5
:10480000880F401C206044F28F042146284608F09F
:1048100001FB18B12146284608F02AFB254C284602
:10482000214608F0F7FA18B12146284608F020FB87
:10483000204C2846413C214608F0ECFA18B12146AC
:10484000284608F015FB1B4C2846823C214608F000
:10485000E1FA18B12146284608F00AFB154C284613
:10486000C33C214608F0D6FA002805D02146284648
:10487000BDE8704008F0FCBA70BD0000E1D8000847
:1048800063616E20213D206275660000706D736764
:104890002D3E6C656E203C3D203800006275662020
:1048A000213D2052545F4E554C4C000063616E0018
:1048B00084000100CB80010010B504F0ABFB35484B
:1048C000FFF717FFBDE8104004F0B4BB10B504F0CB
:1048D000A1FB00212F48FFF76AFEBDE8104004F05D
:1048E000A9BB10B504F096FB01212A48FFF75FFE33
:1048F000BDE8104004F09EBB10B504F08BFB2548CA
:10490000FFF741FFBDE8104004F094BB2DE9F047EC
:1049100086B04FF0010918221F49684608F077FB5E
:1049200000208DF80D00322004900E20DFF864A0E6
:10493000DFF868800024AAF1040A059004EB44061D
:1049400004EB841008EBC6054AF820500AEB8007F8
:1049500007F148001822694608F059FB2846FFF77E
:104960005FFB0D4A58F83610381D0023783AFCF7E3
:104970004DFE050006D0084940F2C322103908A0B8
:1049800004F07CFE641C4C45D8D306B02846BDE834
:10499000F08700009402002030D900083400002085
:1049A000726573756C74203D3D2052545F454F4BCA
:1049B000000000004E2806D2D54901EB0010B0F9E6
:1049C0000010491C00D10020704770B51546C8B2D0
:1049D000FFF7F0FF040018D0608806F061FF102197
:1049E000052D0BD2DFE805F00A05070903001421A5
:1049F00004E0042102E0482100E02821D4E9010379
:104A0000BDE87040032207F0E1BB70BD10B5C8B22D
:104A1000FFF7D0FF002806D081684068BDE810404D
:104A2000D2B207F02ABC10BD10B50022C8B2FFF701
:104A3000C1FF28B181684068BDE8104007F024BC80
:104A4000104610BD2DE9F0471E4615460C46C8B26B
:104A5000DDF82080FFF7AEFF6FF0090930B1806804
:104A600000F046F9070001D4102F02D34846BDE8F4
:104A7000F087FBF7C5FD0346A64807EB470130F971
:104A80002120A24212D100EB8107D7F804C0B4451F
:104A90000CD1B7F802C0AC4508D1D7F808C0C4455E
:104AA00004D11846FBF7B0FD0020E0E7521C05D00A
:104AB0001846FBF7A9FD6FF00200D8E720F8214067
:104AC00000EB810046604580C0F80880E9E770B5DA
:104AD0004FF0FF35C8B2FFF76DFF6FF0090630B138
:104AE000806800F005F9040001D4102C01D3304691
:104AF00070BDFBF785FD0346864804EB440130F9A1
:104B00002120521C07D020F8215000EB8100002208
:104B10004260428082601846FBF776FD002070BD3F
:104B20002DE9F041C8B2FFF745FF04006FF0090816
:104B300052D0794E012A01D0EAB34DE0A06800F0CE
:104B4000D7F8050048D4102D46D2FBF759FD07468B
:104B5000704905EB450031F92020521C09D001EBCA
:104B6000800006EB8506408838B1012807D002286E
:104B700007D03846FBF748FD2EE0002502E001256E
:104B800000E002254FF4C06006F08AFEB0780022F3
:104B9000052107F012FC617B207B07F0AEFB2A4663
:104BA0000021A06807F060FAA06807F0BFFA384655
:104BB000FBF72AFD0DE0FFE7806800F099F8002878
:104BC0000ADB102808D216EB800005D0807807F0A9
:104BD0003CFC0020BDE8F0814046FBE770B5044690
:104BE0000125A540284607F093FA00280DD0494832
:104BF00004EB440100EB8100416809B180688847FB
:104C00002846BDE8704007F091BA70BD10B504F0B9
:104C100001FA0020FFF7E2FFBDE8104004F00ABAF5
:104C200010B504F0F7F90120FFF7D8FFBDE81040F8
:104C300004F000BA10B504F0EDF90220FFF7CEFF42
:104C4000BDE8104004F0F6B910B504F0E3F9032014
:104C5000FFF7C4FFBDE8104004F0ECB910B504F054
:104C6000D9F90420FFF7BAFFBDE8104004F0E2B91B
:104C700010B504F0CFF90520FFF7B0FF0620FFF7CD
:104C8000ADFF0720FFF7AAFF0820FFF7A7FF0920C5
:104C9000FFF7A4FFBDE8104004F0CCB910B504F054
:104CA000B9F90A20FFF79AFF0B20FFF797FF0C20B6
:104CB000FFF794FF0D20FFF791FF0E20FFF78EFF07
:104CC0000F20FFF78BFFBDE8104004F0B3B910B51B
:104CD0004FF4C06006F0E4FD0121104807F0E4FA4B
:104CE0000D490022BDE8104040310DA0FDF723BF63
:104CF000014600205FF0010202FA00F38B4205D06A
:104D0000401CC0B22028F7D34FF0FF30704700009E
:104D100048D900084C00002028DE000800023000BE
:104D200070696E00F0B50D46016C87B0CC6B2668DB
:104D300020B97822A949AAA004F0A0FC25B97922BB
:104D4000A649ACA004F09AFC208906F0A9FD608970
:104D500006F0A6FDA38A208B0322034318212069B5
:104D600007F034FAE38A03220421206907F02EFABF
:104D700068780027082801D8029704E010280BD88B
:104D80004FF400600290A2486C68864202D0A148AD
:104D9000864204D1022003E0082007B0F0BD0320C2
:104DA00006F0F9FEB4EB500F01D306971FE0B4EB09
:104DB000900F01D3082019E0B4EBD00F01D31020DD
:104DC00014E0B4EB101F01D318200FE0B4EB501F18
:104DD00001D320200AE0B4EB901F01D3282005E086
:104DE000B4EBD01F01D3302000E0382006902878A3
:104DF00010F0030006D0012806D0022804D00328B2
:104E000003D101E0059700E005902878400701D51F
:104E1000049701E0802004904FF48270CDE90007F0
:104E20004FF400700390304607F058FC6946304656
:104E300007F09EFB304607F0B2FB0020ADE72DE9FE
:104E4000F0470C46016CC56B00F14406CA6BD2F802
:104E500000A028B96149F52224396FA004F00EFCA6
:104E60002CB95E49F62224396FA004F007FC207C9F
:104E7000C00703D0D5E9000107F0FDF970780828D4
:104E800025D8D4E90167D4F800801DE04FF0FF0970
:104E9000B8F1000F01D018F8019B0221504607F02D
:104EA000B3FC0028F9D04946504607F0FDFB01212C
:104EB000504607F0A9FC0028F9D0504607F0F6FB51
:104EC000C0B20EB106F8010B7F1EDFD225E010281C
:104ED00023D8D4E90167D4F800801CE04FF0FF0923
:104EE000B8F1000F01D038F8029B0221504607F0BC
:104EF0008BFC0028F9D04946504607F0D5FB01212C
:104F0000504607F081FC0028F9D0504607F0CEFB50
:104F10000EB126F8020B7F1EE0D2207C800703D55D
:104F2000D5E9000107F0A5F9A068BDE8F0872B4896
:104F300010B51C38404AC168C8634168C068FEF7B4
:104F400093FC040006D0254940F259120E313BA0D3
:104F500004F094FB204610BD2DE9F0411D46144697
:104F60000F46060006D11D4940F265121D3138A0DA
:104F700004F084FB37B919494FF4B3721D3139A0DD
:104F800004F07CFB20462C4C2B4608340322C4E959
:104F90000005102107F01AF9D4E9000107F069F9BA
:104FA0002346324639463548FEF774FC040012D0D9
:104FB00033A004F02FFA23463246394634A004F0D9
:104FC00029FA3AA004F026FA044940F279121D3178
:104FD0001AA004F053FB2046BDE8F081A8DE0008CB
:104FE00064657669636520213D2052545F4E554CBF
:104FF0004C000000636F6E66696775726174696F5B
:105000006E20213D2052545F4E554C4C0000000054
:1050100000380040003C00406465766963652021EB
:105020003D204E554C4C00006D65737361676520E3
:10503000213D204E554C4C000C01002072657375CB
:105040006C74203D3D2052545F454F4B00000000E2
:105050006275735F6E616D6520213D2052545F4E15
:10506000554C4C006465766963655F6E616D6520C3
:10507000213D2052545F4E554C4C000094030020BB
:105080001B5B33316D5B452F4442475D20000000C0
:1050900025732061747461636820746F2025732008
:1050A0006661696C642C2025640A00001B5B306D0E
:1050B0000A00000070B5C46B05462CB94FF4EC72C1
:1050C000A149A2A004F0DAFAA449206806F09AFFE8
:1050D00000280FD00521206806F06BFF002809D0BA
:1050E00001212846FEF7CDF92068BDE87040052172
:1050F00006F06ABF70BD10B503F08CFF9848FFF74B
:10510000D9FFBDE8104003F095BF10B503F082FF52
:1051100093485430FFF7CEFFBDE8104003F08ABF3C
:1051200010B50446008906F0BBFB608906F0B8FBA9
:10513000E08806F0B5FB238A03221821E06807F017
:1051400045F8238B03220421606907F03FF894F9A6
:1051500004000021002806DA00F00F0000F1E02032
:1051600080F8141D03E000F1E02080F8001494F9A9
:105170000400BDE8104000F0DBB870B50D46040037
:1051800006D1714940F25912443976A004F076FAFA
:1051900035B96D494FF4AD72443977A004F06EFA19
:1051A000E46B2046FFF7BCFF2968206806F09EFDEF
:1051B000287900F00F000928206801D0002101E0C3
:1051C0004FF4805106F0C1FD2879C0F30110012889
:1051D000206801D0002101E04FF4005106F0BDFD30
:1051E0002879C0F38110012804D00228206805D056
:1051F000002105E04FF4C061206801E04FF48061B8
:1052000006F09BFD0421206806F0BFFD0821206800
:1052100006F0B5FD206806F0A8FD002070BD70B551
:105220000E46040006D148494FF4CA7230394DA0E9
:1052300004F024FAE46B40F20535102E12D0112E42
:1052400018D194F90400012100F01F029140400997
:10525000800000F1E020C0F880112946206806F0A7
:10526000C7FE07E094F9040000F062F829462068C0
:1052700006F0B4FE002070BD70B50D46040006D1E6
:10528000314940F2B3121E3936A004F0F7F9E46B4D
:105290002946206806F0C3FD0621206806F089FE35
:1052A0000028F9D0002070BD70B5040006D1264951
:1052B0004FF4E3720F392BA004F0E0F9E46B4FF0E8
:1052C000FF350521206806F074FE18B1206806F04D
:1052D000AAFD0546284670BD2DE9F0471A4840F260
:1052E000031AA8380024D0E9005600F1500900F153
:1052F000080800BF04EBC40208EB82035246D869D9
:10530000C0F84090D869C0E91156D3E90701FEF70B
:1053100092F8070006D00C4940F2032215311AA07A
:1053200004F0ACF9641C022CE4D33846BDE8F087E5
:1053300000F01F02012191404009800000F1E020AF
:10534000C0F800117047000084DF000875617274B6
:1053500020213D2052545F4E554C4C000503050062
:105360005404002073657269616C20213D20525401
:105370005F4E554C4C00000063666720213D205273
:10538000545F4E554C4C0000726573756C74203D33
:105390003D2052545F454F4B0000000070B5FF4C5C
:1053A0000546A06818B104F06CFA0020A06055B161
:1053B000284607F0B6FD401C04F077F9A06010B154
:1053C000294607F08AFD002070BDF44810B5C16879
:1053D00091F82110890703D4F149002008700EE0EC
:1053E000816821B18022EE4807F06AFE07E0EDA156
:1053F000EB4807F072FDEDA1E94807F0FCFDE84835
:1054000010BD10B5E54CE06820B97F22E849E9A05D
:1054100004F034F9E06890F82100C0F3400010BDBA
:1054200070B5DE4C0546E06828B9E1498E22163198
:10543000E0A004F023F9E06810F8211F65F34101B2
:10544000017070BDF8B5D54D00208DF80000E868FA
:1054500028B9D749A2222C31D6A004F00FF9E86868
:10546000D0F80C424FF0FF30002C14D00646012338
:105470006A463146204601F08BFC01280CD03146AB
:10548000E86801F05BFFE868D0F80C02A042EED0BB
:105490000400ECD13046F8BD9DF80000F8BD10B511
:1054A000BE4CE06828B9C249C1223A31C1A004F01B
:1054B000E5F8E06801F0DAFF002010BD70B5B74CE8
:1054C0000646E06828B9BA49D4224731B9A004F0A9
:1054D000D5F8304601F046FB05002CD0E068D0F846
:1054E0000C02A8422DD040F24311284601F0CDFB1A
:1054F000002826D1E068D0F80C0238B101F018FC81
:10550000E0680021D0F80C0201F0C7FCE0685122ED
:10551000002100F5DB7003F0C3FFE0680021A0F874
:105520000812A0F80A12C0F80C522846BDE87040D4
:10553000A54901F0B2BC3146BDE87040A3A003F01C
:1055400069BF70BD10B5954CE06828B99849FB2239
:10555000583198A004F092F8E068D0F80C0210BD21
:1055600070B58E4C0546E06830B9914940F20B1297
:10557000693190A004F082F8E06810F8211F65F30B
:105580000001017070BD10B5844CE06830B98849E5
:105590004FF48C72783187A004F070F8E06890F8CE
:1055A000210000F0010010BD70B50446B0F80802FB
:1055B000F0B3A08C04F5DB76052826D350223146C3
:1055C00004F5B37007F05DFC90B3002505EB850092
:1055D00004EB001000F176015022263003F083FF27
:1055E0006D1C042DF2DB05EB850004EB001026306A
:1055F00005465022002103F053FFB4F80822284644
:10560000314603F070FF052024E048B100EB800034
:1056100004EB0010502231462A3807F032FC38B132
:10562000A08C608400EB800004EB0010502200E0AE
:1056300011E00021263003F033FFA08CB4F80822DB
:1056400000EB800004EB00103146263003F04BFFE6
:10565000A08C401CA084A08C608470BD4F4DE86875
:1056600010F8211F41F001010170D0F8EB0120B9C1
:1056700004F097F808B1FFF721FFFFF7A6FE03F04B
:10568000C9FE0026FFF7DEFE0400FBD41B2C07D06A
:10569000E86890F82010012907D002290ED017E001
:1056A000E968012081F82000ECE75B2C02D080F84B
:1056B00020600DE0022180F82010E3E780F82060F0
:1056C000412C3FD0422C45D0442C61D0432C60D09B
:1056D000002CD7D0FF2CD5D0092C5BD07F2C5AD0F2
:1056E000082C58D00D2C57D00A2CFCD0B0F808123A
:1056F000502901D3A0F80862B0F80A32B0F80812B5
:105700008B424AD2CA1A00F5DB7100F2B710194475
:10571000184403F00EFFE868B0F80A1200F5DB70D9
:105720000C54E86890F82110C90707D0B0F80A12A5
:1057300000F5DB7001442DA003F06CFEE868B0F8C2
:105740000A4204E1418C19B1491E89B241840EE03C
:10575000468497E7818C428C0B46491E8A4202DAC6
:10576000521C428402E0002B8CD04184418C502298
:1057700001EB810100EB011100F5DB70263103F034
:10578000B2FEE86800F5DB7007F0CBFB01462FE0C6
:1057900036E041E053E078E0B7E0DEE01C010020B5
:1057A000FC0400206D736820000000003E00000033
:1057B000ACDF00087368656C6C20213D2052545F9B
:1057C0004E554C4C000000009F54000866696E73F3
:1057D000683A2063616E206E6F742066696E642083
:1057E0006465766963653A2025730A0025730000B5
:1057F000E868A0F80812A0F80A1200F000F941E7E2
:10580000B0F80A020028A4D084A003F003FEE868E0
:10581000B0F80A12491E0FE0B0F80A12B0F80822D8
:10582000914296D200F5DB70095C7DA003F0F2FD99
:10583000E868B0F80A12491CA0F80A1222E700240E
:1058400003E076A003F0E6FD641CE868B0F80A0205
:10585000A042F6DCEC6873A004F5DB7403F0DAFD1B
:10586000204600F061F9FFF7B0FD014622466EA028
:1058700003F0D0FDE86800F5DB7007F052FBE96843
:10588000A1F80802A1F80A02FCE6B0F80A22002AF0
:10589000B5D0B0F80812521E491E89B293B2A0F8D2
:1058A0000812A0F80A32994225D9CA1A00F2B71193
:1058B00000F5DB701944184403F03BFEE868B0F8CB
:1058C000081200F5DB700E54E868B0F80A1200F513
:1058D000DB70014456A003F09DFDE868B0F80A4271
:1058E00003E04EA003F096FD641CE868B0F80802DF
:1058F000A04284DBF5E750A003F08CFDE868B0F827
:10590000081200F5DB700E54BCE6FFF74DFEE868A8
:1059100090F82100C00702D042A003F07BFDE868A8
:10592000B0F8081200F5DB7000F0D9F8FFF74DFD74
:1059300003F070FDE8685122002100F5DB7003F0F0
:10594000AFFDE86823E035A003F064FD641CE8685F
:10595000B0F80802A042F6DC0BE000F5DB700C5456
:10596000E86890F82100C00703D021462CA003F07E
:1059700051FDE868B0F80812491C89B2A0F8081275
:10598000B0F80A22521CA0F80A225029BCD3A0F871
:105990000862A0F80A6275E6284AC2E90001704769
:1059A0007CB527492748FFF7F7FF4FF40471012022
:1059B00003F05AFF214CE060D8B10A2114204FF4C3
:1059C00080530022CDE90001AFF26F311EA005F037
:1059D000E3F8054600231A461DA1E06801F0DBFB51
:1059E0000120FFF71DFD15B1284605F064F80020E1
:1059F0007CBD19A003F00EFD4FF0FF307CBD10B54B
:105A000004461BA003F006FDFFF7DFFC014604F58A
:105A1000DB7205A003F0FEFC002010BD08000000B2
:105A2000256300000A0000002573257300000000B4
:105A30000825732020080000082008001C01002011
:105A400024F2000864F10008747368656C6C00004F
:105A500073687278000000006E6F206D656D6F7264
:105A60007920666F72207368656C6C0A0000000014
:105A70001B5B324B0D00000070B59DA003F0CAFC0B
:105A8000A248A34D046805E0D4E90012A1A003F0E8
:105A9000C1FC0C3428688442F6D3A1A003F0BAFC00
:105AA000002070BD10B500F0B9F9002010BD0EB592
:105AB000002000900190029002AA01A9684603F01C
:105AC000F2FE98A0009903F0A5FC9AA0019903F0BA
:105AD000A1FC9CA0029903F09DFC00200EBD38B5EE
