:020000040800F2
:10000000C810002011400008194000081907000816
:100010001D4000081F4000082140000800000000AB
:100020000000000000000000000000002340000865
:1000300025400008000000005F060008A13F0008FE
:100040002B4000082B4000082B4000082B400008E4
:100050002B4000082B4000083D4C0008514C000884
:10006000654C0008794C00088D4C00082B400008B6
:100070002B4000082B4000082B4000082B400008B4
:100080002B4000082B4000082B400008E9480008DE
:10009000FD4800081349000829490008A14C000840
:1000A0002B4000082B4000082B4000082B40000884
:1000B0002B4000082B4000082B4000082B40000874
:1000C0002B4000082B4000082B4000082B40000864
:1000D0002B4000082B4000082B400008E55000088A
:1000E000CD4C00082B4000082B4000082B40000896
:1000F0002B4000082B4000082B4000082B40000834
:100100002B4000082B4000082B4000082B40000823
:100110002B4000082B4000082B4000082B40000813
:100120002B4000082B4000082B4000082B40000803
:1001300000F002F800F05CF80AA090E8000C82449D
:100140008344AAF10107DA4501D100F051F8AFF27A
:10015000090EBAE80F0013F0010F18BFFB1A43F0A5
:100160000103184784F00000A4F000000A444FF097
:10017000000C10F8013B13F0070408BF10F8014B06
:100180001D1108BF10F8015B641E05D010F8016B4B
:10019000641E01F8016BF9D113F0080F1EBF10F8AF
:1001A000014BAD1C0C1B09D16D1E58BF01F801CBD2
:1001B000FAD505E014F8016B01F8016B6D1EF9D555
:1001C0009142D6D37047000000230024002500266A
:1001D000103A28BF78C1FBD8520728BF30C148BFAA
:1001E0000B6070471FB50DF027F81FBD10B510BD8F
:1001F0000CF0EFFF1146FFF7F5FF06F090FC0DF055
:100200000DF803B4FFF7F2FF03BC00F07FF9000024
:100210002C4D4FF4FA662C4630460AF09CFE294AD3
:1002200003230021A86803F04CFCA37862782178AE
:1002300025A009F0E5F823490323C91C0022A8687A
:1002400003F03FFCE8E71FB502280ED0082226A1E4
:1002500002A809F0C3F91023254A23A125A004F020
:1002600093FE02A920B125A003E049680822EFE728
:1002700027A009F0C5F802A806F06AFC11498860B9
:10028000D8B108218DF8011004218DF800102549FE
:100290000191694603F034FB0A2115204FF4806375
:1002A0000022CDE90001AFF297011FA00AF06AFC1D
:1002B000002801D00AF0F5FB1FBD02A91CA009F01F
:1002C0009FF8E9E7000000207370695F726563764C
:1002D0002069732030782578E3808130782578E3B1
:1002E0008081307825780A00737069303100000011
:1002F0000008014073706930000000002573206120
:100300007474616368206661696C65640A0000004A
:1003100025732061747461636820737563657373FA
:100320000A00000040420F00636F5F6366670000D1
:100330007370692073616D706C652072756E2066D4
:1003400061696C6564212063616E27742066696E43
:100350006420257320646576696365210A000000C6
:1003600070B5012440F203600BF092FA204D102387
:100370000322194628460BF021FF102128460BF0D6
:1003800072FF0021142002F053FC0021132002F020
:100390004FFC18A006F0DCFB18490860210206F0AB
:1003A0006AFC4FF4FA751EE00121142002F054FC9F
:1003B00028460AF0D0FD0021142002F04DFC28460A
:1003C0000AF0C9FD0121132002F046FC28460AF07C
:1003D000C2FD0021132002F03FFC28460AF0BBFDBD
:1003E00007A009F00DF8641C012CDDD1002070BDC0
:1003F000000C014075617274320000000C00002096
:100400006100000010B5044654490CF07DFE002840
:1004100018D052492046891D0CF076FE98B14F49FC
:1004200020460D310CF070FE78B14DA008F0E8FFC9
:100430004A4952A21B3159A008F0E2FF59A008F026
:10044000DFFF002010BD012010BD022010BD10B53F
:1004500043A008F0D5FF414948A225314FA008F03C
:10046000CFFF50A008F0CCFF002010BD10B53CA07D
:1004700008F0C6FF394941A2303148A008F0C0FF5A
:1004800048A008F0BDFF002010BD70B515460E460F
:100490004FF0FF3401280FD002280DD0B0B130A0AA
:1004A00008F0AEFF2D4935A23A313CA008F0A8FF74
:1004B0003CA008F0A5FF07E009F069F920B12B4640
:1004C0003246214606F08BFC002070BD204670BDF0
:1004D00010B523A008F094FF204928A245312FA091
:1004E00008F08EFF2FA008F08BFF002010BD10B584
:1004F00014460B462DA2214609F033F9012010BD08
:1005000000207047C1B22BA008F07ABF00F054F869
:10051000FEE710B512A008F073FF104917A24F3183
:100520001EA008F06DFF1FA008F06AFF002010BD9C
:10053000022801D8012070470020704710B508A09C
:1005400008F05EFF05490DA2143114A008F058FF11
:1005500014A008F055FF002010BD000042D2000892
:100560001B5B33336D5B572F61726D6C6962632E59
:1005700073797363616C6C735D200000506C65610E
:10058000736520656E61626C652052545F555349F6
:100590004E475F504F5349585F46530025733A20EA
:1005A000257300001B5B306D0A00000074656D252B
:1005B000303364002563000070B505460AF07BF90E
:1005C000040011D00EA008F01BFF2A46214611A0FE
:1005D00008F016FF14A008F013FF2046BDE8704095
:1005E000002201210AF0BDBC70BD10B5040005D089
:1005F00008F0BBFF0146204605F067FA002010BD59
:100600001B5B33316D5B452F7374646C69625D20D5
:10061000000000007468726561643A257320657893
:1006200069743A25642100001B5B306D0A000000EC
:10063000EFF3108072B6704780F310887047444A19
:100640001368012B04D04FF001031360414A10607E
:10065000414A116041484FF0805101607047EFF30B
:10066000108272B63A48016851B34FF00001016040
:100670003848016891B1EFF309811EF0100F08BFEF
:1006800021ED108B21E9F00F4FF000041EF0100F48
:1006900008BF012441F8044D006801602E49096833
:1006A000096808C9B1E8F00F002B18BFB1EC108B36
:1006B00081F309884EF0100E002B18BF2EF0100E9B
:1006C00082F310884EF0040E704723490860EFF360
:1006D000148222F0040282F314881E494FF00000B5
:1006E00008601B494FF0010008601D481D49D0F803
:1006F000002041EA0201016018484FF0805101607A
:1007000019480068006880F3088861B662B6BFF3D4
:100710004F8FBFF36F8F70471EF0040F0CBFEFF3C6
:100720000880EFF3098020E9F00F40F804ED40F86D
:1007300004ED1EF0040F0CBF80F3088880F30988D5
:1007400000B500F068F85DF804EB4EF0040E704759
:100750001C000020140000201800002004ED00E020
:1007600020ED00E00000FFFF08ED00E070B504465A
:10077000121D22F007000022A64D443840F82250F6
:10078000521C112AFAD3416200218162C16200F138
:100790003402016382E81A004FF080730364016041
:1007A00070BD9D490860704710B59CA008F028FEF8
:1007B0009D4C21789DA008F023FE2078C00702D030
:1007C000A0A008F01DFE2078800702D5A0A008F0A8
:1007D00017FE2078400702D5A0A008F011FE20786F
:1007E000000702D5A1A008F00BFE2078C00602D5B4
:1007F000A1A008F005FE2078000607D58A480F3032
:100800000168BDE810409EA008F0FABDBDE81040A8
:100810009FA008F0F5BD70B57F49054628300968EE
:100820002C1D11B18847002857D09AA0216C08F0E0
:10083000E7FD9CA0616A08F0E3FD9EA0A16A08F0B4
:10084000DFFDA0A0E16A08F0DBFDA2A0216B08F0AB
:10085000D7FDA4A0616808F0D3FDA6A0A16808F0A8
:10086000CFFDA8A0E16808F0CBFDAAA0216908F09F
:10087000C7FDACA0616908F0C3FDAEA0A16908F096
:10088000BFFDB0A0E16908F0BBFDB2A0216A08F08D
:10089000B7FDB4A0616B08F0B3FDB6A0A16B08F082
:1008A000AFFDB8A0E16B08F0ABFD2878400708D594
:1008B0000AF001F80146B7A008F0A2FD05F0A4FA7D
:1008C00002E0BCA008F09CFD2878C00602D4C0A0BD
:1008D00008F096FD00F013F8FEE770BD10B5C0A05B
:1008E00008F08EFDBDE8104040F2B512C049C1A02D
:1008F00008F0BABE4C49C0481D390860704710B5B1
:10090000494CE41C2068800702D5BCA008F078FDA3
:100910002068400010D54448007808B1FFF744FF34
:100920004148401E007808B100F042F83E48401CA3
:10093000008808B100F009F82068002804DABDE852
:100940001040B4A008F05CBD10BD10B5B5A008F013
:1009500057FD354C641C2188B6A008F051FD208855
:10096000C00702D0B9A008F04BFD2088800702D54F
:10097000B9A008F045FD2088400702D5B9A008F0CD
:100980003FFD2088000702D5B8A008F039FD208877
:10099000C00502D5B7A008F033FD2088800502D538
:1009A000B7A008F02DFDBDE81040A1A008F028BDBB
:1009B00010B5B6A008F024FD1B4C641E2178B8A029
:1009C00008F01EFD2078C00702D0BBA008F018FD7B
:1009D0002078800702D5BBA008F012FD2078000720
:1009E00002D5BBA008F00CFD2078C00602D5BBA044
:1009F00008F006FD2078000607D50B480B3001688B
:100A0000BDE81040B8A008F0FBBCBDE8104088A0CD
:100A100008F0F6BCEFBEADDE10000020627573205A
:100A20006661756C743A0A0029ED00E05343425F39
:100A3000434653525F424653523A3078253032583B
:100A4000200000004942555345525220000000004A
:100A5000505245434953455252200000494D50528F
:100A6000454349534552522000000000554E53540F
:100A70004B4552522000000053544B455252200027
:100A80005343422D3E424641523A253038580A00DF
:100A90000A0000007073723A203078253038780AE6
:100AA000000000007230303A203078253038780A63
:100AB000000000007230313A203078253038780A52
:100AC000000000007230323A203078253038780A41
:100AD000000000007230333A203078253038780A30
:100AE000000000007230343A203078253038780A1F
:100AF000000000007230353A203078253038780A0E
:100B0000000000007230363A203078253038780AFC
:100B1000000000007230373A203078253038780AEB
:100B2000000000007230383A203078253038780ADA
:100B3000000000007230393A203078253038780AC9
:100B4000000000007231303A203078253038780AC1
:100B5000000000007231313A203078253038780AB0
:100B6000000000007231323A203078253038780A9F
:100B700000000000206C723A203078253038780A66
:100B8000000000002070633A203078253038780A61
:100B90000000000068617264206661756C74206FEB
:100BA0006E207468726561643A2025730D0A0D0A1F
:100BB0000000000068617264206661756C74206FCB
:100BC0006E2068616E646C65720D0A0D0A0000008B
:100BD00046505520616374697665210D0A00000056
:100BE00073687574646F776E2E2E2E0A00000000F5
:100BF0009BD20008300000000400FA056661696CB1
:100C0000656420766563746F722066657463680A34
:100C1000000000006465627567206576656E740A81
:100C2000000000007573616765206661756C743A39
:100C30000A0000005343425F434653525F554653F8
:100C4000523A30782530325820000000554E444545
:100C500046494E5354522000494E56535441544530
:100C600020000000494E5650432000004E4F435094
:100C700020000000554E414C49474E45442000009D
:100C800044495642595A45524F2000006D656D2027
:100C90006D616E616765206661756C743A0A00006B
:100CA0005343425F434653525F4D4653523A307866
:100CB00025303258200000004941434356494F4CEB
:100CC000200000004441434356494F4C200000009F
:100CD0004D554E53544B4552522000004D53544BEA
:100CE00045525220000000005343422D3E4D4D41DD
:100CF000523A253038580A0010B5040004D11822A1
:100D0000FD49FEA008F0B0FC0021C4F8F810C4F8BA
:100D1000FC10C4F8D010216C20460A6822B1BDE84E
:100D2000104000F1440110476FF0050010BD2DE99F
:100D3000F84F15468946060005D1EF4932220C319D
:100D4000F2A008F091FCD6F8F8402F462CB9EA49F9
:100D500036220C31F1A008F087FC4FF0000A002D7C
:100D60006DD0FFF765FC8346D9F8040040F30740D7
:100D7000002823DBD6F8D01001B3B26D82421DD912
:100D800000EBC0031C22009302EB8303CA581944F2
:100D90008A4213D0083A9046104600F0CCFE08F183
:100DA000080000F0C8FE0098D6F8D020042101EB1E
:100DB00080001158B9B1491E115014E0401C3BD1BC
:100DC000206904F11001884236D0804600F0B3FE5D
:100DD00008F1080000F0AFFED8F8100018B1416823
:100DE00009B1491E41605846C8F810A0FFF724FC1D
:100DF000B8F1000F23D0102208F11401484608F082
:100E000068FBFFF715FC8346414604F1080000F03B
:100E10008BFE6068401C6060B16C884205D9B649A1
:100E200072220C31C2A008F01FFC5846FFF704FCE8
:100E300009F11009103D92E75846FFF7FDFB781BBA
:100E4000BDE8F88F2DE9F74F84B01746060005D1AD
:100E5000A94987221831ADA008F006FC0197D6F801
:100E6000FC502DB9A4498B221831BDA008F0FCFB21
:100E70004FF0FF39002F6CD005F124004FF0180B14
:100E80004FF0020A00904946281D06F04DFAFFF780
:100E9000CFFB6C6A80462CB9974997221831B5A0D0
:100EA00008F0E2FB204600F046FE4046FFF7C4FB98
:100EB0002868C4F814A0211AB1FBFBF2306C059924
:100EC00083683046984780B1FFF7B2FB014600982F
:100ED0000268546002682260046060600846FFF7A0
:100EE000ABFB281D06F0B8FAC4E70120C6F8900055
:100EF000494604F1080000F0B9FEFFF799FB0290A3
:100F00002068D4F81480A04202D0204600F013FEDE
:100F10002146009800F008FE0298FFF78DFB281D7F
:100F200006F09AFAB8F1000F07D0FFF781FB716F56
:100F3000491C7167FFF780FB0BE0FFF779FB316F0E
:100F4000491C3167FFF778FB059810300590103F7A
:100F500099D1019807B0C01BBDE8F08F2DE9F04F83
:100F60008BB00F46040006D1634940F20B123531B5
:100F700062A008F079FB04F1D4004FF0FF31089033
:100F800006F040FCF8B22083D4F8F8004FF00009D6
:100F90004FF0080A00284FD1F8054DD5A06C182154
:100FA00000EBC000002601EB800008F074FB050098
:100FB00006D1514940F21B12353158A008F054FBBC
:100FC00005F118002860A16C01EBC1018A00002125
:100FD00008F05CFA05F108000290E860A8600830AB
:100FE00068612861A06C4FF0100B686014E000BFCE
:100FF000296806EBC60801EB8801029800F094FD11
:101000002A680AEB88001044761C406000602B6858
:101010000BEB880043F80090A06CB042E8D8C4F80D
:10102000F850208B4FF4807240F480712183206C43
:101030001021436820469847D4F8FC00002854D17A
:10104000780552D5E06C2C2100EB4000002601EB26
:10105000C00008F020FB050006D1274940F23B12F2
:1010600035313FA008F000FB05F12C002860E16C51
:1010700001EB4101CA00002108F008FA05F1240043
:10108000A86283464FF01408686213E0286806EBF4
:10109000460700EBC701584600F046FD29680AEBF9
:1010A000C700084400F0D0FD2A6808EBC701761C91
:1010B00042F80190E06CB042E8D8224632A104A880
:1010C00008F05EFB002304A9281DE26C06F059F825
:1010D000C4F8FC50208B4FF4806240F4806121837F
:1010E000206C1021436820469847206C4FF48052B2
:1010F0001021436820464BE0AED20008646576209C
:10110000213D2052545F4E554C4C000063616E20CF
:10111000213D2052545F4E554C4C000072785F6662
:1011200069666F20213D2052545F4E554C4C0000A3
:1011300072785F6669666F2D3E667265656E756D65
:1011400062657273203C3D2063616E2D3E636F6E5D
:101150006669672E6D7367626F78737A00000000AE
:1011600074785F6669666F20213D2052545F4E554A
:101170004C4C000074785F746F736E6420213D20C6
:1011800052545F4E554C4C002573746C00000000A7
:101190009847D4F8D00020BBA06D002500EBC0001C
:1011A000800008F078FA060005D140F25B12FE4993
:1011B000FEA008F059FAA06D002100EBC0008200EB
:1011C000304608F063F907E005EBC50006EB800048
:1011D0001C306D1C40600060A06DA842F4D8C4F8BB
:1011E000D060D4F8980030B90120C4F8980004F118
:1011F0009C0009F0F9FF089806F0C6FB00200BB030
:10120000AAE62DE9F041040007D1E7494FF4BB728B
:101210000C31AFF2181008F027FA04F1D4004FF0A7
:10122000FF31074606F0EEFAA07E012805D93846C0
:1012300006F0AAFB0020BDE8F081D4F89800002554
:1012400028B104F19C00C4F898500AF024F8C4F8BE
:10125000C850C4F8CC50D4F8D00018B108F007FB3F
:10126000C4F8D050208BC0051AD5D4F8F8603EB928
:10127000CD4940F299120C31AFF2601008F0F4F948
:10128000304608F0F4FA208B4FF4807220F480711D
:101290002183C4F8F850206C1121436820469847F8
:1012A000208B40051DD5D4F8FC603EB9BE4940F204
:1012B000A7120C31AFF2581008F0D6F9301D05F026
:1012C0008FFF304608F0D3FA208B4FF4806220F471
:1012D00080612183C4F8FC50206C112143682046B2
:1012E0009847206C4FF4805211214368204698475C
:1012F0009DE770B51D461646040007D1AA4940F285
:10130000BF121931AFF20C2008F0AEF955B1218BA4
:101310002046C90506D5817E21B12A463146BDE861
:10132000704004E5002070BD70B51D4616460400EF
:1013300007D19D4940F2D3122531AFF2402008F089
:1013400093F99DB1218B204649050FD5817E69B166
:10135000B0F850102A4611F47F4F314603D0BDE853
:10136000704000F0F1BBBDE870406BE5002070BD3F
:101370002DE9F84F15460E4604004FF0000807D13E
:1013800089494FF4F7723231AFF2902008F06CF9CE
:10139000132E77D006DC012E15D0022E0FD0032E8F
:1013A00004D115E0162E19D0182E65D0206C436894
:1013B000002B7CD02A463146204698471DE1E08A22
:1013C00040F0200002E0E08A20F02000E08215E1F9
:1013D000206C29460268204690470EE1B4F8500080
:1013E000C0F30720A842F2D0206C2A463146436859
:1013F000204698475FEA000873D1B4F85000D4F84B
:10140000FC5010F47F4F464616D119E0FFF710F953
:101410000746286806EB460150F8312000EBC10072
:10142000824203D1281D06F017F801E000F083FB8B
:101430003846FFF701F9761CE06CB042E6D8DDE0F3
:10144000142705F1240912E0FFF7F2F8824606EBB3
:101450004600296807EBC0028A5822B901EBC00197
:10146000484600F061FB5046FFF7E6F8761CE06C5A
:10147000B042E9D8C2E005E0286844F8C80F6868BF
:101480006060BBE0206C2A4631464368204698479E
:101490005FEA000824D1D4F8D000002820D02F0023
:1014A00008D141494FF41072323144A000E0A2E06B
:1014B00008F0DAF8D7E901053E6800274FF0040A82
:1014C0004FF01C094FF0080B40B991E0A868A16DDE
:1014D000884201D2002805DA1435761E002EF5D197
:1014E0008CE08CE0FFF7A4F80146AA68D4F8D0009D
:1014F00002EBC20250F8220048BB0846FFF79CF8F6
:10150000A86854F8D01F00EBC0020BEB820008441F
:101510001422294607F0DDFFFFF78AF8AB6822683E
:10152000014603EBC303012042F82300A8682268A8
:1015300000EBC0030AEB83001750A86854F8D029C9
:1015400000EBC00309EB83001044406000600846D4
:10155000FFF772F8C0E7A868A16D884246D200285C
:1015600044DBFFF765F80090A968D4F8D00001EBE0
:10157000C10150F82120AAB340F82170A868D4F81E
:10158000D01000EBC0020AEB82000F50A868D4F81C
:10159000D02000EBC00109EB810150581144884272
:1015A00001D000F0C8FA0DE0E3D200087068647260
:1015B00020213D2052545F4E554C4C007066696CA2
:1015C000746572000098FFF737F8A868D4F8D01057
:1015D00000EBC0020BEB820008441422002107F04C
:1015E00055FF03E0FFE70098FFF726F81435761E55
:1015F000002EB0D102E06FF00500804640461FE4A7
:1016000010B5040005D140F29E22F849F8A008F078
:101610002BF804F15C021721204605F011FCD4F8E8
:10162000C8201AB12046D4F8CC109047D4F89800BE
:10163000012802D1FF20C4F8980010BD2DE9FC411B
:101640001E4617468846040007D1E84940F2C622E4
:101650000B31AFF2485008F007F804202075002540
:10166000E5612562C4F8D050C4F8F8500122E0A129
:1016700004F1D400C4F8FC5006F010F8DD486062B4
:10168000DD48A062DD48E062DD482063DD4860633C
:10169000C4F8C8502764DC48C4F8CC50A0633C228E
:1016A000002104F15C0007F0F1FEE663C4F89850F5
:1016B0000221606DCDE900012346D44A414604F180
:1016C0009C0009F0D3FC02B041462046BDE8F04141
:1016D000032205F040BA2DE9FF5FCDB201270E4687
:1016E00004464FF000084FF0140A012D0CD0022DD3
:1016F0007ED0032DFCD0062D7BD1FEF799FFE16E45
:10170000491CE166FEF798FFD4F8F8503DB9B74997
:1017100040F20D321E31AFF2FC5007F0A5FF208BD6
:10172000C00506D4B14940F20F321E31B8A007F00F
:101730009BFF206C32126946C36820469847401CC4
:1017400057D0FEF775FF8346A06EC4F88C70401C1E
:10175000A066A86805F108014FF0040988421BD073
:10176000064600F0E8F906F1080000F0E4F93169F6
:1017700019B1486808B1401E4860C6F81080686812
:1017800030B99A4940F225321E31ADA007F06CFF06
:101790006868401E686017E0286905F110018842FA
:1017A00057D00646E06E401CE066304600F0C3F9B4
:1017B00006F1080000F0BFF9306918B1416809B1BD
:1017C000491E4160C6F810805846FEF735FFEEB35B
:1017D0001022694606F1140007F07BFEFEF728FF91
:1017E0008346314605F1100000F09EF9019801E0B2
:1017F0007FE062E040F30747D4F8D00038B3A06D33
:10180000B84201D9002F06DA784940F242321E313F
:1018100092A007F029FFD4F8D00007EBC70850F8D2
:101820002810A1B11C2202EB8801084406F108012E
:1018300000F07AF9D4F8D01001EB88003061D4F8C8
:10184000D00009EB88014258521C01E004E000E09E
:1018500042505846FEF7F0FED4F8D00078B307EBBC
:10186000C70650F8261051B30AEB860850F8080056
:1018700028B3A06DB84201D9002F06DA5B494FF4B6
:1018800055721E3175A007F0EFFEFEF7D1FED4F8B9
:10189000D02009EB860151580D01FEF7CDFE002D39
:1018A0000BD0D4F8D000182101EB860150F8086065
:1018B00041582B463A462046B047BDE8FF9FFFE718
:1018C000E0690028F9D0FEF7B3FE1035024629463C
:1018D000002000E0401C2D688D42FBD10501104620
:1018E000FEF7AAFE002DE8D0E2692946204690477F
:1018F000E3E7D0F8FC403CB93C4940F27A321E3173
:10190000AFF2A47007F0B0FE301200EB40011420DB
:1019100000EBC100022D0BD023681F50206804B0DB
:101920000822BDE8F05F02EBC101084400F02BBAC9
:10193000226842F80080F1E730B58FB00C460228EB
:1019400049DB606805F004F96168050025D04DA009
:1019500007F056FD6A461721284605F071FADDE9C1
:1019600000124F4807F04CFDDDE907124D4807F023
:1019700047FDDDE909124C4807F042FD4BA0029AF1
:101980000B9907F03DFD02995648082912D2DFE86D
:1019900001F00B0D1E1E2020202053A007F030FD6B
:1019A0004FF0FF300FB030BD016800E0416855A036
:1019B00007F026FDDDE90312534807F021FDDDE9BC
:1019C000050101445148069A07F01AFD0BE08168B1
:1019D000EDE7C168EBE74EA0216807F011FD514823
:1019E000216807F00DFD0020DCE7000024D300088B
:1019F00063616E00F90C00085D0F00080312000817
:101A0000F3120008291300087113000801160008DA
:101A100063616E2D3E706172656E742E6F70656EBF
:101A20005F666C616720262052545F4445564943E7
:101A3000455F464C41475F494E545F525800000095
:101A400072785F6669666F2D3E667265656E756D4C
:101A500062657273203E20300000000068647220CE
:101A60003C2063616E2D3E636F6E6669672E6D610B
:101A70007868647220262620686472203E3D2030FB
:101A8000000000002046696E6465642063616E207A
:101A90006465766963653A2025732E2E2E0000005A
:101AA0003CE8000880E80008F8E700080A204352F4
:101AB000432E2E2E2E2E2E2E6572726F722E2E63B8
:101AC0006F756E743A20253031306C642E2045726B
:101AD000726F722E636F64652E5B253031306C64DB
:101AE0005D3A2000200000202043616E27742066AC
:101AF000696E642063616E20646576696365202584
:101B0000730A000025732E00B4E70008ECE6000815
:101B100020496E76616C69642043616C6C2025738A
:101B20000A00000030E700084268116042684A601D
:101B3000416008607047D0E900124A60D0E90012A5
:101B400011604060006070472DE9F05F15468846DF
:101B5000040004D1D122324932A007F085FDD4F827
:101B6000FC60AB462EBBD5222D4932A007F07CFD90
:101B70002CE000BFB8F80400C0F30727E06CB842BF
:101B800026D9FEF755FD07EB470A1422316802EB10
:101B9000CA0951F809206AB1FEF74EFD07EB47026A
:101BA0000820316800EBC20008444FF0FF3100F01C
:101BB0005DF80BE0022341F80930FEF73DFD206C93
:101BC0003A46414683682046984728B1002DD1D136
:101BD000ABEB0500BDE8F09F0120C4F890000821A0
:101BE00001EBCA0032684FF0FF31104400F03EF8BC
:101BF000316851F8090038B1FEF71AFD616F491CD0
:101C00006167FEF719FDE3E7FEF712FD216F491C3E
:101C10002167FEF711FD08F11008103DAAD1D7E7A2
:101C2000D2D2000863616E20213D2052545F4E5590
:101C30004C4C000074785F6669666F20213D20522D
:101C4000545F4E554C4C000010B5040004D11B22CB
:101C50005F4960A007F008FDFEF7EAFC002102C41E
:101C600064602460BDE81040FEF7E6BC2DE9F34156
:101C7000040005D156493A22133156A007F0F4FC6E
:101C8000019800283BD0FEF7D3FC054608F08BFDF9
:101C900050B14F4955A0133107F0B2FB4C493D22DA
:101CA00013315DA007F0E0FCFEF7C2FC064608F029
:101CB00002FE50B9464959A0133107F0A1FB44492F
:101CC0003D22133154A007F0CFFCFEF7B1FC0746CC
:101CD00007F0B6F950B13E495EA0133107F090FB12
:101CE0003B493D2213314CA007F0BEFC3846FEF7BD
:101CF000A3FC3046FEF7A0FC2846FEF79DFC00271B
:101D000008F0D9FD0546FEF793FC804620680026C2
:101D100001282ED06168201D814205D02C49462221
:101D2000133156A007F0A0FC019848B328462E6353
:101D300008F09EFFA26805F11400211D1060A26842
:101D4000AA61A06069610198002809DD05F14C00D5
:101D500001AA0021074609F0CEFA384609F044FAF4
:101D60004046FEF769FC08F090FC2F6BFEF760FC24
:101D7000804626604046FEF75FFC3846BDE8FC81A1
:101D80006FF00107F6E770B5040005D110497F2216
:101D9000263110A007F068FC2068012816D0FEF755
:101DA00047FC0546012001C42068A04209D0143830
:101DB00008F040FE2846FEF73FFCBDE8704008F002
:101DC00064BC2846BDE87040FEF736BC70BD00001C
:101DD00050D30008636F6D706C6574696F6E20215D
:101DE0003D2052545F4E554C4C00000046756E63CA
:101DF00074696F6E5B25735D3A2073636865647503
:101E00006C6572206973206E6F7420617661696CF5
:101E100061626C650A0000003000000046756E6368
:101E200074696F6E5B25735D207368616C6C206EE6
:101E30006F742062652075736564206265666F72D9
:101E400065207363686564756C6572207374617274
:101E5000740A000046756E6374696F6E5B25735D6E
:101E6000207368616C6C206E6F74206265207573DE
:101E7000656420696E204953520A000072745F6CD9
:101E80006973745F6973656D707479282628636F50
:101E90006D706C6574696F6E2D3E73757370656ED1
:101EA0006465645F6C697374292900002DE9F04151
:101EB0001E4617460D46040004D12F22FA49FBA006
:101EC00007F0D2FB25B93022F749FDA007F0CCFB83
:101ED000FE4826622060A580E780208961896FF333
:101EE0000E0040F400402081080C0004608104F1E1
:101EF0001000606120610830E061A061E80007F037
:101F0000CAFBE06010B10020BDE8F0816FF0040072
:101F1000FAE72DE9FF5F040005D1E349622213319E
:101F2000E2A007F0A1FBE9492068884205D0DE491C
:101F300063221331E6A007F097FB039800283BD0FB
:101F4000FEF776FB054608F02EFC50B1D649E8A016
:101F5000133107F055FAD44966221331EFA007F088
:101F600083FBFEF765FB064608F0A5FC50B9CE4999
:101F7000EBA0133107F044FACB4966221331E7A0F6
:101F800007F072FBFEF754FB074607F059F850B113
:101F9000C549F1A0133107F033FAC3496622133162
:101FA000DEA007F061FB3846FEF746FB3046FEF741
:101FB00043FB2846FEF740FB002608F07CFC054664
:101FC000FEF736FB0746B04605F1140A04F1100B84
:101FD00005F14C0926E00398F0B12846C5F8308099
:101FE00008F046FE5146584600F0B4FA039800281F
:101FF00007DD03AA0021484609F07DF9484609F0AB
:10200000F3F83846FEF718FB08F03FFB2E6BFEF79F
:102010000FFB074636B102E06FF001063846FEF7C7
:102020000BFB43E060890004D5D46289E168C2F308
:102030000E02019841F8320062890423C2F30E02B5
:10204000E16803EBC202029888506089D90301EB72
:10205000F0304FEA70406081A288C0F30E019142D7
:1020600002D16FF30E006081208920F400412181AC
:102070006089C0F30E028A4202D140F400406081C0
:10208000A06904F11801884208D0143808F0D2FC85
:102090003846FEF7D1FA08F0F8FA07E03846FEF7BE
:1020A000CBFA226A12B102212046904704B0304692
:1020B000BDE8F09F10B5040006D17B494FF4ED72E6
:1020C00074317AA007F0D0FA80492068884206D09F
:1020D000754940F2DB1274317DA007F0C5FA208902
:1020E000000401D5002010BDFEF7A2FA0246608967
:1020F000C0F30E012089C0F30E00814201D8A388ED
:102100001944081A04B21046FEF796FAA0B210BDA0
:102110002DE9FF4F83B090468946040005D16249FE
:10212000D722263161A007F09FFA684920688842CB
:1021300005D05D49D822263165A007F095FAB9F19E
:10214000000F05D15849D92226318DA007F08CFA0D
:10215000B8F1000F05D15449DA2226318DA007F0DD
:1021600083FA069800283BD0FEF762FA064608F08C
:102170001AFB50B14C495EA0263107F041F94A499B
:10218000DD22263165A007F06FFAFEF751FA054609
:1021900008F091FB50B9444961A0263107F030F9AD
:1021A0004149DD2226315DA007F05EFAFEF740FAD4
:1021B000074606F045FF50B13B4967A0263107F0BE
:1021C0001FF93949DD22263154A007F04DFA38466F
:1021D000FEF732FA2846FEF72FFA3046FEF72CFAC1
:1021E000002608F068FB0546FEF722FA074605F1CF
:1021F0001400019004F11800B24605F14C0B009058
:1022000026E00698F0B12846C5F830A008F030FD69
:10221000DDE9000100F09EF90698002807DD06AA16
:102220000021584609F067F8584608F0DDFF3846A7
:10223000FEF702FA08F029FA2E6BFEF7F9F90746C5
:1022400036B102E06FF001063846FEF7F5F9D1E04D
:1022500020890004D5D42189E068C1F30E0104224D
:1022600050F83110C9F800102189E068C1F30E015F
:1022700002EBC1014158C8F800102089D10301EBDD
:10228000F0304FEA70402081A288C0F30E019142E5
:1022900002D16FF30E002081608920F4004060813C
:1022A0002189C1F30E027DE089D30008717565753F
:1022B0006520213D2052545F4E554C4C00000000DB
:1022C00073697A65203E2030000000000E0EADBE1E
:1022D00071756575652D3E6D61676963203D3D20B3
:1022E0004441544151554555455F4D41474943008F
:1022F00046756E6374696F6E5B25735D3A20736318
:10230000686564756C6572206973206E6F742061F6
:102310007661696C61626C650A0000003000000043
:1023200046756E6374696F6E5B25735D20736861BB
:102330006C6C206E6F74206265207573656420621A
:1023400065666F7265207363686564756C6572207D
:1023500073746172740A000046756E6374696F6EFF
:102360005B25735D207368616C6C206E6F742062F6
:1023700065207573656420696E204953520A000018
:10238000646174615F70747220213D2052545F4E0D
:10239000554C4C0073697A6520213D2052545F4EA4
:1023A000554C4C00904202D141F40040208120461F
:1023B000FFF780FEE188884214D8206904F11001FB
:1023C000884208D0143808F035FB3846FEF734F957
:1023D00008F05BF902E03846FEF72EF9226A4AB1AE
:1023E000032105E03846FEF727F9226A12B10121E0
:1023F0002046904707B03046BDE8F08F70B51546CF
:102400000E46040006D1574940F24F12AFF2641055
:1024100007F02AF954492068884206D051494FF400
:10242000A872AFF2541007F01FF92089000402D5FA
:102430006FF0030070BDFEF7FBF82289E168C2F37C
:102440000E02042351F8321031602289E168C2F390
:102450000E0203EBC20289582960FEF7EDF8002056
:1024600070BD2DE9F041040007D13E4940F26F12E2
:102470001331AFF2C81007F0F7F83B4920688842E3
:1024800007D038494FF4B8721331AFF2BC1007F0DF
:10249000EBF8FEF7CDF80246208961896FF30E0054
:1024A00040F400402081080C000460811046FEF7D3
:1024B000C3F808F054F94FF0FF3504F118060AE0AC
:1024C000FEF7B6F80746A069C561143808F0B2FAFD
:1024D0003846FEF7B1F8A069B042F1D104F1100618
:1024E0002069B0420BD0FEF7A3F807462069C5610A
:1024F000143808F09FFA3846FEF79EF8F0E708F027
:1025000039F9BDE8F04108F0C0B810B5040007D1B2
:1025100014494FF4DF722731AFF2702007F0A4F8AE
:1025200011492068884207D00E4940F2BF12273176
:10253000AFF2642007F098F82046FFF792FFFEF70D
:1025400077F800212160FEF777F8E06807F08FF94F
:10255000002010BD4268116042684A604160086016
:1025600070470000C1D300080E0EADBE040004D1B8
:102570003C22F749F7A007F077F8FEF759F82568ED
:102580000646A54209D108F096F908F071FB3046DD
:10259000FEF752F808F079F8EFE7284600F07EFAE7
:1025A0002561288A002720F00100288230462F6408
:1025B000FEF742F8D5E9022128469047276108F046
:1025C000CEF804F11405284604F044FF801C02D024
:1025D00008F0D0F8D1E7284604F03EFFF3E770B5E5
:1025E000056C04462DB9DA49BA221831D9A007F092
:1025F0003BF8FEF71DF8064604F1140008F064FDF0
:10260000208A20F002002082204600F047FA286944
:10261000A04207D02146686800F039FA208A40F0CD
:1026200001002082286930B9686B90F8341001F0FD
:102630000701022904D03046BDE87040FDF7FCBF19
:1026400008F0F8F93046FDF7F7FFBDE8704008F0F4
:102650001CB8F7B582B00C460546FDF7E9FF074602
:10266000204600F01BFA208A20F001012182049804
:1026700080B16FF0004290424DD2890704F11406F8
:102680002FD5304608F007FE04AA0021304608F096
:1026900032FE33E02869A0420AD02146686800F083
:1026A000F6F9208A40F0010020822564002401E030
:1026B0006FF00604286930B9686B90F8341001F0A7
:1026C0000701022905D03846FDF7B6FF204605B0C0
:1026D000F0BD08F0AFF93846FDF7AEFF07F0D5FFC3
:1026E000F4E70421CDE9000123469F4A9FA130462B
:1026F00008F0BCFC208A40F00200208225642146BC
:10270000E86800F0C4F93846FDF796FF304608F057
:102710006BFD0020DBE73846FDF78EFF4FF0FF3002
:10272000D5E72DE9F0410C460546FDF781FF064649
:10273000204600F0B3F9208A20F0010020828007B3
:102740000BD504F11400074608F0A5FD384608F043
:10275000BBFC208A20F0020020822869A04201D020
:10276000002501E06FF00605002020643046FDF7EB
:1027700063FF2846BDE8F08170B516460D4604009B
:1027800005D17349E32236317AA006F06DFF2DB9E9
:102790006F49E42236317BA006F066FF6460246056
:1027A00000202064C4E902562082608270BD2DE9B9
:1027B000FC41074615460E46382006F06CFF040023
:1027C0001BD06460246004F10800E060A060002079
:1027D00003460246206171A104F1140004F0D1FC0B
:1027E0000A20CDE90050334622466E49384608F0AB
:1027F000C9F9606320B108F054F92046BDE8FC81B6
:10280000204607F034F80020F8E770B5040006D140
:102810004F494FF4D772D5314EA006F025FF07F08F
:102820009EFF02E02046FFF77CFF2168A142F9D11C
:1028300004F10805A168A94203D02046FFF771FF03
:10284000F8E707F097FF002070BD10B5040006D12F
:102850003F4940F21D1243313EA006F005FF2046DD
:10286000FFF7D3FF606B08F0B1F904F1140004F036
:10287000B7FC204606F0FBFF002010BD70B50C46EB
:10288000050006D1324940F23312583131A006F02A
:10289000EBFE34B92E494FF49A72583135A006F048
:1028A000E3FE21462846BDE870400022D1E670B51F
:1028B00014460D46060006D125494FF4A5726C3129
:1028C00024A006F0D1FE35B9214940F24B126C31FB
:1028D00028A006F0C9FE6FF00040844206D31C49D0
:1028E0004FF4A6726C3130A006F0BEFE2246294697
:1028F0003046BDE87040ACE670B50D46040006D128
:1029000013494FF4AF72853112A006F0ADFE35B910
:102910000F4940F25F12853116A006F0A5FEFDF7C3
:1029200087FE0646284600F0B9F82946204600F002
:10293000AEF8206930B9606B90F8341001F00701EF
:1029400002293DD03046FDF777FE002070BD000023
:102950000FD40008717565756520213D2052545FC4
:102960004E554C4C00000000DF250008776F726B5D
:1029700000000000776F726B20213D2052545F4EA3
:10298000554C4C00776F726B5F66756E6320213D0E
:102990002052545F4E554C4C000000007771756515
:1029A000756500006D2500087469636B73203C2019
:1029B00052545F5449434B5F4D4158202F20320001
:1029C00008F038F83046FDF737FE07F05EFEBCE74A
:1029D00070B50D00044606D135494FF4C172AFF20F
:1029E0006C0006F041FE34B9314940F28312AFF277
:1029F0009C0006F039FE29462046BDE8704090E66E
:102A000070B50D46040007D1294940F293121931DF
:102A1000AFF2C00006F028FE3DB925494FF4CA7256
:102A20001931AFF2B00006F01FFE2069A84206D1AE
:102A30004FF0FF3104F1140004F076FC03E0294666
:102A40002046FFF76EFE002080E70A46014619483F
:102A500000682CE70146174800684DE70146154815
:102A60000068B5E710B5134C206870B917224FF411
:102A7000006111A0FFF79BFE206030B90C494FF4B4
:102A8000FC7254310FA006F0EFFD002010BD02686B
:102A9000516002680A60016048607047D0E9001226
:102AA0004A60D0E900121160406000607047000089
:102AB000ADD400083000002073797320776F726BFB
:102AC000710000007379735F776F726B7120213D25
:102AD0002052545F4E554C4C0000000070B51E460D
:102AE0001546040004D119227D497EA006F0BCFDE4
:102AF0000DB1042E01D0002070BD206C29888268A1
:102B0000204690476880304670BD70B51E46154619
:102B1000040005D1724928220A3172A006F0A4FDF2
:102B20000DB1042E01D0002070BD206C6A88298868
:102B3000436820469847304670BD70B5144605007E
:102B400005D167493822153166A006F08DFD3CB1EC
:102B5000286C62882188036828469847002070BD49
:102B60004FF0FF3070BD10B50C46624919230B754C
:102B70000023CB610B624B628B62CB625E4B0B63BB
:102B80005E4B4B635E4B0C64C1E90E32014603227F
:102B9000584803F0E0FF002010BD2DE9F843554CE4
:102BA00080461D46206C16460F4628B94C496B22BC
:102BB000223154A006F058FD206CC4683CB1334665
:102BC0003A4641464B480095A047BDE8F8836FF070
:102BD0000500FAE770B5474C0546206C28B9404916
:102BE0007522343147A006F03FFD206C026922B106
:102BF0002946BDE870403F4810476FF0050070BDA2
:102C000070B53C4C06460D46206C28B934497F22ED
:102C100046313CA006F028FD206C43692BB12A46C2
:102C20003146BDE87040334818476FF0050070BD6D
:102C300070B5304C06460D46206C28B928498A22CA
:102C4000583130A006F010FD206C2A46314603684A
:102C5000BDE870402748184770B5264C06460D461B
:102C6000206C28B91E499122643126A006F0FCFC94
:102C7000206C2A4631464368BDE870401D4818471D
:102C800070B51C4C0546206C28B915499822713145
:102C90001CA006F0E9FC206C29468268BDE8704063
:102CA0001448104770B5134C0546206C28B90C49E0
:102CB0009F227D3113A006F0D7FC2878502805D03C
:102CC0000749A0227D3115A006F0CEFC206C816959
:102CD00019B12846BDE8704008476FF0050070BD87
:102CE0001CD5000870696E20213D2052545F4E555E
:102CF0004C4C000050020020DD2A00080B2B00087D
:102D00003B2B00085F68775F70696E2E6F707320D1
:102D1000213D2052545F4E554C4C00006E616D6554
:102D20005B305D203D3D20275027000010B5F74C5B
:102D3000206800280AD1F6A006F062FBF84806F0E9
:102D40005FFBF8A006F05CFB0120206010BD70B5B1
:102D5000C46C05462CB940F27B12F449F4A006F08D
:102D600083FCA188E088814206D1A068002802D0B7
:102D7000A86CC0F38F2070BD04D8A0EB0100A96C33
:102D8000C1F38F21A1EB000070BD2DE9F04717467C
:102D90008846050002D0B8F1000F06D1E34940F2A1
:102DA000E9125731E7A006F05FFCFDF741FC8146D0
:102DB000EF49A86C084202D1EC6C3CB10DE028460A
:102DC000EE6CFFF7C4FF04466EB333E0D74940F220
:102DD000F3125731E7A006F047FC2068012818D00D
:102DE00001202060286C006930B9D0494FF4FC7292
:102DF0005731E5A006F038FC286C01233A460469F7
:102E000041462846A0474846FDF716FC3846BDE82F
:102E1000F0876FF006044846FDF70EFC204606F0EA
:102E20001CFB0020F3E7C1494FF402725731C0A0E8
:102E300006F01AFCA74200DA3C46F088A96C021999
:102E4000C1F38F218A4204D23168224601444046B0
:102E50000EE00A1A31680144404606F03AFBF08859
:102E6000A96C0219C1F38F21521A4144081A316822
:102E700006F02FFB2146284600F075FC4846FDF77A
:102E8000DBFB2046C3E770B504004FF0000506D118
:102E9000A64940F24A226631C5A006F0E5FB0021B2
:102EA000E1642165216C20460A681AB100F14401F1
:102EB00090470546284670BD2DE9F0410D460400B7
:102EC0004FF0000706D1994940F25D227531B8A054
:102ED00006F0CAFBA9056FF0070002D5E18A890553
:102EE0007ED5290502D5E18A090579D5E90502D5FE
:102EF000E18AC90574D5690502D5E18A49056FD50E
:102F0000680602D4207E400600D54027E8B2208320
:102F1000E16C4FF0000821B1E90571D540F48071F2
:102F200072E0E8052AD5A06CC0F38F200C3006F0C3
:102F3000B2FB060006D17D494FF41F7275317CA0AB
:102F400006F092FB06F10C003060A16CC1F38F22F9
:102F5000002106F09BFAA6F80480A6F80680C6F8C1
:102F60000880E664208B4FF4807240F480712183E6
:102F7000206C102143682046984746E0A80544D5B8
:102F80007B49A06C084205D1042006F084FB0600B2
:102F900008D00EE0C0F38F200C3006F07CFB06005A
:102FA0000BD011E0614940F28F22753171A006F01B
:102FB0005BFBC6F80080E6641FE05C494FF42672B4
:102FC00075315BA006F050FB06F10C003060A16C7F
:102FD000C1F38F22002106F059FAA6F8048000E020
:102FE00067E0A6F80680C6F80880E664206C4FF417
:102FF00000720321436820469847208B02E0FFE7D8
:10300000A90502D540F400712183206D00284FEA04
:10301000455005D0002842DA208B40F4806043E020
:10302000002819DA0C2006F036FB050006D13F49CE
:1030300040F2BB22753162A006F016FB2846FEF76F
:1030400003FE2565208B4FF4806240F4806121836C
:10305000206C102143681FE0280526D5282006F0A3
:103060001AFB050006D1314940F2CA22753159A038
:1030700006F0FAFA002304220821281DC5F8008072
:10308000FEF714FF2565208B4FF4006240F40061C9
:103090002183206C032143682046984705E02805DA
:1030A00003D5208B40F400602083208B384320839D
:1030B0000020BDE8F08170B5040006D11B4940F244
:1030C000EE2284313AA006F0CFFAA07E012801D981
:1030D000002070BD208B4FF00006C10514D5206C78
:1030E0004FF480721121436820469847208B20F4CA
:1030F00080712183E56C15B940F2FD2293E02846EA
:1031000006F0B5FBE66494E06EE0000034000020B9
:103110001B5B33336D5B572F554152545D200000CC
:10312000C4E800081B5B306D0A000000E2D500080F
:1031300072785F6669666F20213D2052545F4E555C
:103140004C4C00002873657269616C20213D20524F
:10315000545F4E554C4C292026262028646174610A
:1031600020213D2052545F4E554C4C290000000058
:1031700000FCFF0372785F646D6120213D20525492
:103180005F4E554C4C00000073657269616C2D3EBA
:103190006F70732D3E646D615F7472616E736D69E3
:1031A0007420213D2052545F4E554C4C00000000CD
:1031B00064657620213D2052545F4E554C4C0000F2
:1031C00074785F6669666F20213D2052545F4E55CA
:1031D0004C4C000074785F646D6120213D20525496
:1031E0005F4E554C4C000000800522D5206C4FF4FA
:1031F00000721121436820469847208B20F400710B
:103200002183FE49A06CE56C084208D1002D7FF4B3
:1032100076AFFB4940F20F32AFF2A80006E0002D76
:10322000F5D14FF44672F649AFF2FC0006F01CFAF5
:1032300065E7208B410518D5206C4FF48062112181
:10324000436820469847208B20F480612183256DB8
:1032500035B9EB4940F22932AFF29C0006F004FA8E
:10326000284606F004FB266519E0000517D5206CFA
:103270004FF400621121436820469847208B20F4C8
:1032800000612183256D35B9DD4940F23A32AFF254
:10329000BC0006F0E9F9281DFFF737F9E0E7206CDC
:1032A00000220421436820469847E08A20F010005D
:1032B000E0820DE72DE9F0411C461546060007D1D6
:1032C000CF4940F251321031AFF21C1006F0CCF968
:1032D0004CB1318B3046CA0507D522462946BDE898
:1032E000F04100F0BAB90020E3E6890504D5224692
:1032F0002946BDE8F04148E52EB9C149E122C2396D
:10330000C0A006F0B1F92746306CC1683046884746
:10331000411C09D005F8010B317E641E490601D518
:103320000A2801D0002CEFD1381BC2E62DE9F0416C
:103330001C461546060007D1B14940F26B321F31D9
:10334000AFF2941006F090F94CB1318B30464A053B
:1033500007D522462946BDE8F04100F0C7B9002054
:10336000A7E6090520D5376D4FF0FF3322462946E1
:10337000381DFEF7CEFD10B106F06FF8EFE7FDF750
:1033800057F9396801290BD001213960FDF754F94B
:10339000306C02232246076929463046B84701E0CF
:1033A000FDF74AF9204684E62EB99549F822B2394C
:1033B00094A006F059F9274628780A2807D1307ECC
:1033C000400604D5306C0D21826830469047306C41
:1033D0002978826830469047641E05F10105EBD1DB
:1033E000384666E62DE9F04114460E4607004FF0D8
:1033F000000507D1824940F2E5322F31AFF250206B
:1034000006F032F93846012E0FD0022E09D0032ED5
:1034100010D0016C22464B68314698470546284635
:1034200047E6F88A40F0200002E0F88A20F0200009
:10343000F882F4E7002CF2D06168836CC1F38F222C
:10344000C3F38F239A4203D0827E0AB1072030E66D
:103450002268C0E91121817E0029E0D0016C0A6850
:1034600021469047DBE72DE9F0411C4615460E4604
:10347000070006D1624940F2EB42413161A006F0FB
:10348000F3F800213975F96139626349796263495A
:10349000B9626349F96263493963634938467963BC
:1034A0006249C0E90E14AAB23146BDE8F04103F00A
:1034B00052BB2DE9FE430446C8B200274FF0010875
:1034C00001281CD0022869D0032877D0042814D101
:1034D000256D00236A4602A9281DFEF719FE6A46DB
:1034E00001A9281DFEF78AFF00285CD02F60226A00
:1034F000002A02D0204602999047BDE8FE83E56C81
:103500003DB93F4940F217525731AFF2DC3006F077
:10351000ABF8206CC168204688470646401C24D082
:10352000FDF786F88146A98828684654A888401C7B
:1035300080B2A880A16CC1F38F21884200D3AF80F4
:10354000A988E88881420CD1401C80B2E880C5F887
:103550000880A16CC1F38F21884200D3EF80FFF770
:10356000E5FB4846FDF768F8D3E7E0690028C4D0DA
:10357000FDF75EF80246A888E988884201D3451A1B
:1035800004E0081AA16CC1F38F210D1A1046FDF753
:1035900053F8002DB1D02946E26929E0206DBDE83D
:1035A000FE43FEF7F0BBC5F80080206CDDE900218A
:1035B000056902232046A84799E7FFE70E120F4945
:1035C000A06C084202D1E56CBDB138E0FDF730F8DF
:1035D00005463146204600F0F3F82046FFF7B7FBDA
:1035E00006462846FDF728F8E269002A85D03146CC
:1035F00003B02046BDE8F043104719E000FCFF038C
:1036000066D6000873657269616C20213D205254B2
:103610005F4E554C4C000000872E0008B92E000864
:10362000B7300008B53200082D330008E533000834
:1036300080494FF4AF62AFF2C44006F015F8E0697C
:1036400028B940F27A527B497BA006F00DF8E26976
:103650003146204690472F604FE72DE9F047154649
:103660000F46060007D1734940F21712F939AFF23D
:103670006C0005F0F9FFF46CA8464FF0000A7CBB23
:103680006C4940F21B12F939AFF25C5005F0ECFFC7
:1036900026E000BFFCF7CCFF0146E088A2889042FC
:1036A00001D1A26882B1226812F80090401C80B259
:1036B000E080B26CC2F38F22904201D3A4F806A03E
:1036C000A068012804D005E00846FCF7B5FF09E032
:1036D000C4F808A00846FCF7AFFF07F8019B6D1E71
:1036E000002DD7D1A8EB0500BDE8F0872DE9F04704
:1036F00014460E46050007D14E4940F24712EA39FA
:10370000AFF2001005F0B0FFD5F8508027465FEA11
:1037100008004FF0FF391DD1464940F24B12EA39FB
:103720004FA005F0A1FF15E030780A2809D1287EC6
:10373000400606D5286C0D21826828469047401C1B
:103740000CD0286C3178826828469047401C05D000
:10375000641E761C002CE7D13846C5E74946404632
:10376000FEF784FAF6E770B5C46C0D4606463CB920
:1037700030494FF4D372BE39AFF24C6005F074FF9C
:103780003046FFF7E4FAA84206D22A4940F2A712CF
:10379000BE3937A005F068FFA06810B10DB1002058
:1037A000A060E088284481B2E180B06CC0F38F2033
:1037B000814204D3B1FBF0F200FB1210E08070BD37
:1037C00070B5C46C0E4605463CB91A494FF4DE721A
:1037D000A139AFF2A46005F047FFE288A088012379
:1037E000824230440FD880B2A080A96CC1F38F21EF
:1037F000884217D3B0FBF1F501FB1500A080904281
:1038000010D3A36011E081B2A18091420AD3A86CC9
:10381000C0F38F208142F4D3B1FBF0F200FB121011
:10382000A080EEE7A068012803D1FFF77FFAA08807
:10383000E08070BDBDD6000873657269616C2D3E75
:10384000706172656E742E72785F696E646963610F
:10385000746520213D2052545F4E554C4C000000B1
:10386000747820213D2052545F4E554C4C0000008E
:103870006C656E203C3D2072745F646D615F6361B6
:103880006C635F7265637665645F6C656E287365F3
:103890007269616C2900000070B515460E46044639
:1038A00000F0AEFA00280CD10122314604F14800A4
:1038B00003F0F4FE00206564E066012084F8400017
:1038C000002070BD70B504461D460E46104603F03C
:1038D0003FF910B1017D0C2902D04FF0FF3070BDCF
:1038E00020643146204600F0E0FA0028F7D1082293
:1038F000002104F1440005F0C9FD0020E56370BD1E
:1039000070B50D46040004D14D22FB49FBA005F023
:10391000ABFE687884F84500287884F8440068682D
:10392000A064206C98B14FF0FF31483003F06AFF7B
:1039300068B9206CC16EA14205D1406C04F144010C
:10394000026820469047206C483004F01DF80020A3
:1039500070BD2DE9F04385B01F46DDF830909046EC
:103960000D46040005D1E4496F221131E3A005F0B2
:103970007BFE206C28B9E04970221131E4A005F0EB
:1039800073FE206C4FF0FF31483003F03BFF6FF0C7
:10399000070618B1304605B0BDE8F083206CC16E53
:1039A000A14208D0406C04F14401026820469047CF
:1039B00030BB206CC46600950025CDE90158049801
:1039C000694620F0020040F00100CDE90350206C70
:1039D000406C42682046904790B10498CDE900754C
:1039E00020F00100CDF8089040F00200CDE903502E
:1039F000206C6946406C42682046904700B100E068
:103A00003546206C483003F0BFFF2846C3E72DE958
:103A1000F04385B01F46DDF8309090460D46040017
:103A200005D1B549BA222731B4A005F01DFE206C9E
:103A300028B9B149BB222731B5A005F015FE206C8D
:103A40004FF0FF31483003F0DDFE6FF0070608B19C
:103A50003046A0E7206CC16EA14208D0406C04F152
:103A6000440102682046904720BB206CC466009544
:103A70000025CDE901580498694620F0020040F085
:103A80000100CDE90350206C406C4268204690470D
:103A900080B18DE8A0020498694620F0010040F052
:103AA0000200CDE90350206C406C426820469047EC
:103AB00000B100E03546206C483003F065FF284631
:103AC00069E72DE9F04186B01D4616460F46040011
:103AD00006D189494FF482723D3188A005F0C4FDBA
:103AE000206C30B9844940F205123D3188A005F0C0
:103AF000BBFD206C4FF0FF31483003F083FE6FF0C8
:103B0000070830B1404605F0A8FC002006B0BDE82B
:103B1000F081206CC16EA1420DD0406C04F14401D3
:103B200002682046904720B1404605F096FC0025EB
:103B300015E0206CC4660097CDE9016504986946DC
:103B400040F00300049000200390206C406C426819
:103B500020469047050002D1404605F07EFC206CCF
:103B6000483003F011FF2846D0E770B50D46040039
:103B700006D1614940F23F124D3160A005F074FD5D
:103B80005DB3206C4FF0FF31483003F03BFE20B1B5
:103B90006FF0060005F061FC1FE0002005F05DFC01
:103BA000206C6FF00706C16EA14208D0406C04F192
:103BB000440102682046904788B9206CC466206C96
:103BC0002946406C42682046904740B1ED68002D80
:103BD000F5D1206C483003F0D7FE284670BD304642
:103BE00005F03BFCF5E770B5040006D142494FF4FF
:103BF000BE72653141A005F037FD206C30B93E49F9
:103C000040F27D12653142A005F02EFD206C4FF090
:103C1000FF31483003F0F6FD050006D06FF00604D2
:103C2000204605F01AFC204670BD002005F015FC6A
:103C3000206CC16EA14210D0406C04F144010268B6
:103C40002046904705000AD06FF00705284605F08A
:103C500004FC206C483003F097FE284670BD206CB1
:103C6000C466FAE710B5040006D123494FF4D272B6
:103C7000753122A005F0F8FC206C30B91E4940F2E5
:103C8000A512753122A005F0EFFC206CC06EA04299
:103C900006D019494FF4D372753123A005F0E4FC26
:103CA000206C483003F070FE002010BD10B586B0C7
:103CB000040006D1104940F2B31288310FA005F07C
:103CC000D3FC206C30B90C494FF4DA72883110A063
:103CD00005F0CAFC14220021684605F0D7FB0498C1
:103CE000694640F001000490206C406C4268204618
:103CF000904706B010BD0000CED600086465766916
:103D0000636520213D2052545F4E554C4C0000000D
:103D10006465766963652D3E62757320213D20528E
:103D2000545F4E554C4C00006465766963652D3ECA
:103D30006275732D3E6F776E6572203D3D20646520
:103D4000766963650000000010B586B0040006D1F6
:103D50000F4940F2C312AFF25C0005F085FC206C05
:103D600030B90B494FF4E272AFF25C0005F07CFC15
:103D700014220021684605F089FB0498694640F04A
:103D800002000490206C406C426820469047B0E7E7
:103D900062D7000870B51D461646040004D11622ED
:103DA000504951A005F060FCE06E20B917224D4942
:103DB00051A005F059FC2B463246E06EBDE870403C
:103DC0000021FFF77EBE70B51E461546040005D1E2
:103DD00044492422153144A005F046FCE06E28B980
:103DE00040492522153144A005F03EFC33462946C2
:103DF000E06EBDE870400022FFF763BE0020704710
:103E000070B50D46040005D1364949222B3136A044
:103E100005F02AFC0C21217500216162A162E1629A
:103E20003B4921633B4961633B49A16320462946E5
:103E3000BDE87040032202F08EBE70B51D461646E6
:103E4000040005D127496822423134A005F00CFC5A
:103E5000206C28B923496922423135A005F004FCC1
:103E60002B4632462046BDE870400021FFF729BEB0
:103E700070B51E461546040005D11A497622563102
:103E800026A005F0F1FB206C28B91649772256319F
:103E900027A005F0E9FB334629462046BDE87040DF
:103EA0000022FFF70EBE0020704770B50D460400DB
:103EB00005D10C499A226B3123A005F0D5FB0D21C9
:103EC000217500216162A162E162234921632349D6
:103ED00061632349A16320462946BDE8704003225F
:103EE00002F039BE71D7000862757320213D20525F
:103EF000545F4E554C4C00006275732D3E6F776ECB
:103F0000657220213D2052545F4E554C4C000000FC
:103F1000953D0008C73D0008FD3D000864657669D1
:103F2000636520213D2052545F4E554C4C000000EB
:103F30006465766963652D3E62757320213D20526C
:103F4000545F4E554C4C000064657620213D205254
:103F5000545F4E554C4C00003B3E0008713E00083B
:103F6000A73E0008FEE770B5234864214FF0FF35F7
:103F70000068B0FBF1F1491EB1F1807F0AD24FF029
:103F8000E02461610F21284600F025F80020A0619F
:103F9000072020612846BDE87040002100F01BB8D2
:103FA00010B505F02DF802F021FDBDE8104005F038
:103FB00037B8124910B54FF000600860FFF7D3FF23
:103FC00002F064FD0EA005F0E5FBBDE810400E49CF
:103FD0000E4805F010BC0907090E002806DA00F0AB
:103FE0000F0000F1E02080F8141D704700F1E02080
:103FF00080F80014704700004C02002008ED00E03B
:10400000756172743200000000800020C81000202A
:104010000948804709480047FEE7FEE7FEE7FEE75C
:10402000FEE7FEE7FEE7FEE7FEE7FEE70448054998
:10403000054A064B7047000057B6000831010008DA
:10404000C8080020C8100020C80C0020C80C0020A0
:1040500010B540F2197007F01BFC40F2026007F047
:1040600017FCFD4C4FF4006303224821204608F062
:10407000A5F8A31403221821204608F09FF84FF456
:10408000C06007F005FCBDE8104001214FF4EB10C3
:1040900008F002B92DE9F04188B08846060004D145
:1040A0006A22EE49EEA005F0DFFAB8F1000F04D164
:1040B0006B22EA49EEA005F0D7FAE84F0025092166
:1040C000C43FD8F800002C46361F00BF05EB850220
:1040D00057F82220824203D06D1C8D42F6D325462C
:1040E0006946002008F0A3FB03A9012008F09FFB0C
:1040F0003068406808F08CFB8DF8084001948DF81A
:10410000094098F80C004FF0010810F0FF0006D0AD
:10411000012807D0022838D0032806D103E08DF803
:10412000004002E002208DF8000005EB850007EB5F
:1041300080008DF8004001798DF80110017B8DF829
:104140000210017A8DF80310008AADF80A00306879
:104150006946406808F0A9FBADF81640ADF8184074
:10416000ADF80C40ADF81040ADF81A80ADF80E4037
:10417000ADF81240ADF814408DF81C8003A808F08B
:1041800013FC08B00020BDE8F0818DF80080CCE77A
:104190002DE9F04F85B014460F46050005D1AF4913
:1041A000A9220C31AEA005F05FFA2CB9AB49AA22C6
:1041B0000C31B3A005F058FA281F103F00684FF4E7
:1041C000805C4FF4007A4668B1484FF4006B4FF0C2
:1041D000FF3205F144014FF480784FF48069082FD5
:1041E0004AD2DFE807F04A044998E9DBFEFD44457E
:1041F0001DD1864205D1142008F01FF9152008F0C2
:104200001CF90221304608F0E6FD0421304608F092
:10421000E2FD0821304608F0DEFD1021304608F0AE
:10422000DAFD2021304608F0D6FD402121E04C4542
:1042300006D1864202D1132008F0FFF8012118E0D0
:10424000644519D1864202D1162008F0F6F841469D
:10425000304608F0C0FD5146304608F0BCFD4946E6
:10426000304608F0B8FD5946304608F0B4FD4FF42A
:104270000041304608F0AFFDEBE0444521D18642D5
:1042800009D100220421142008F08FF80022042113
:10429000152008F08AF80221304608F098FD042124
:1042A000304608F094FD0821304608F090FD1021BA
:1042B000304608F08CFD2021304608F088FD402172
:1042C00025E04C4508D1864204D100220421132068
:1042D00008F06BF801211AE064451BD1864204D135
:1042E00000220421162008F060F84146304608F00C
:1042F0006EFD5146304608F06AFD4946304608F0EA
:1043000066FD5946304608F062FD4FF400413046E4
:1043100008F05DFD9DE000253CE000BFA16805EBD5
:104320008500082202EB8002895AADF80A10A168C4
:1043300051F82010C90FADF80C100121ADF80E1086
:10434000A16851F82010490BADF80010A16851F890
:104350002010CA00C1F3407342EA8302C1F38071A6
:1043600042EA4101ADF802100421A26801EB80008D
:104370001158090CADF80410A168085AADF80600F0
:104380000020ADF8080020798DF81000684608F08C
:104390000BFB6D1C2068A842C0D85AE02CB1012C40
:1043A00003D0022C01D0032C2FD195F85000A0424D
:1043B0004FD085F8504034E0364884421DD036480E
:1043C00084421AD03548844217D0B4EB600014D030
:1043D000A4F5F430483810D0314884420DD001E0C3
:1043E00024E00FE0B4EB600007D0A4F59C40203837
:1043F00003D0A4F51C50103807D1686CA04228D017
:104400006C640EE0012C04D01CB1104605B0BDE870
:10441000F08FB5F85000C0F30720A04219D085F8FE
:10442000514005B02846BDE8F04F33E6B0693C2264
:10443000010EE965C0F307412966C0F30211C5F812
:10444000941000F00700686605F15C01204605F055
:1044500040F80020DAE7000000080140B8D8000862
:1044600063616E20213D2052545F4E554C4C00003C
:1044700063666720213D2052545F4E554C4C00002E
:1044800061726720213D2052545F4E554C4C000014
:104490000064004040420F0000350C0020A10700DE
:1044A000A086010030B585B00C460546142168464B
:1044B00008F0D7FD35B9FD494FF4C472AFF2600082
:1044C00005F0D2F8A54205D140F28912F749F8A0CB
:1044D00005F0CAF855F8040C45682079082805D974
:1044E00040F28F12F149F5A005F0BEF82068800077
:1044F00007D400208DF80800206820F0604000906C
:1045000006E004208DF80800206820F0604001904B
:104510002068022101EA50708DF80900207969466F
:1045200000F00F008DF80A00284608F0F2FA032880
:1045300002D0002005B030BD4FF0FF30FAE770B573
:1045400086B00D46044616461421684608F089FDDB
:104550003CB9D6494FF4D5720D31AFF2FC0005F0ED
:1045600083F835B9D14940F2AB120D31D7A005F02F
:104570007BF854F8040C2C46F1B240686A4608F007
:1045800064FB9DF80800002820680ED040F0005021
:104590002060019961F31C0020609DF8090000284B
:1045A000206807D040F0804006E020F000502060F6
:1045B0000099EFE720F0804020609DF80A0020710C
:1045C0009DF813000822401C4008A07104F1080067
:1045D0000DF10B0104F07DFF06B0002070BD2DE948
:1045E000F0410F46040006D1B0494FF4E7721A318A
:1045F000BAA005F039F8201F012600684FF0060820
:104600004568EFB3012F7CD10121284608F072FBE9
:1046100048B1B349284608F0F5FB20B140F201113A
:104620002046FDF758F840F203463146284608F088
:10463000D6FB70B1AA4F28464137394608F0E2FB55
:1046400038B13146284608F0D5FB3946284608F0EF
:1046500007FC40F204463146284608F0C0FB00281B
:104660004FD09F4F28468237394608F0CBFB0028B1
:1046700047D03146284608F0BDFB3946284600E0C1
:1046800008E008F0EDFB4FF483712046BDE8F041EF
:10469000FDF721B80021284608F02CFB70B14CF240
:1046A00081073946284608F0ADFB38B1394628461F
:1046B00008F0D6FB31462046FDF70DF840F20336F0
:1046C0003146284608F08BFB70B14CF2C2073946E0
:1046D000284608F097FB38B13146284608F08AFB97
:1046E0003946284608F0BCFB4FF441773946284646
:1046F00008F075FB002804D04CF20316314628461A
:1047000000E00DE008F07EFB002809D0394628467D
:1047100008F070FB3146284608F0A2FB4146B4E79A
:1047200031E570B5040006D1604940F20F22263110
:104730006AA004F099FF201F4FF40046006831463C
:104740004568284608F05EFB90B13146284608F0DF
:1047500087FB40F2012627E03146284608F04AFB55
:10476000022100E003212046BDE87040FCF7B3BF02
:104770004FF402463146284608F044FB30B131463A
:10478000284608F06DFB40F209260DE04FF4044680
:104790003146284608F036FB0028E3D0314628464B
:1047A00008F05EFB40F211263146284608F017FB60
:1047B0000028D7D0D0E770B5040006D13B494FF4AC
:1047C0001272323145A004F04FFF201F0068456887
:1047D000284608F0F1FA07282DD2DFE800F02C2C4B
:1047E00021042525280040F203263146284608F0FA
:1047F000F6FA08B103210FE040F20B21284608F039
:10480000EEFA10B140F2031106E040F213212846FF
:1048100008F0E5FA78B131462046FCF75CFF0AE083
:10482000E06F401CE06706E054F8840F01E054F8A4
:10483000880F401C206044F28F042146284608F06F
:10484000E1FA18B12146284608F00AFB254C284613
:10485000214608F0D7FA18B12146284608F000FB97
:10486000204C2846413C214608F0CCFA18B121469C
:10487000284608F0F5FA1B4C2846823C214608F0F1
:10488000C1FA18B12146284608F0EAFA154C284624
:10489000C33C214608F0B6FA002805D02146284638
:1048A000BDE8704008F0DCBA70BD0000D1D8000847
:1048B00063616E20213D206275660000706D736734
:1048C0002D3E6C656E203C3D2038000062756620F0
:1048D000213D2052545F4E554C4C000063616E00E8
:1048E00084000100CB80010010B504F089FB35483D
:1048F000FFF717FFBDE8104004F092BB10B504F0BD
:104900007FFB00212F48FFF76AFEBDE8104004F04E
:1049100087BB10B504F074FB01212A48FFF75FFE46
:10492000BDE8104004F07CBB10B504F069FB2548DD
:10493000FFF741FFBDE8104004F072BB2DE9F047DE
:1049400086B04FF0010918221F49684608F057FB4E
:1049500000208DF80D00322004900E20DFF864A0B6
:10496000DFF868800024AAF1040A059004EB4406ED
:1049700004EB841008EBC6054AF820500AEB8007C8
:1049800007F148001822694608F039FB2846FFF76E
:104990005FFB0D4A58F83610381D0023783AFCF7B3
:1049A0004DFE050006D0084940F2C322103908A088
:1049B00004F05AFE641C4C45D8D306B02846BDE826
:1049C000F08700009802002020D90008380000205D
:1049D000726573756C74203D3D2052545F454F4B9A
:1049E000000000004E2806D2D54901EB0010B0F9B6
:1049F0000010491C00D10020704770B51546C8B2A0
:104A0000FFF7F0FF040018D0608806F041FF102186
:104A1000052D0BD2DFE805F00A0507090300142174
:104A200004E0042102E0482100E02821D4E9010348
:104A3000BDE87040032207F0C1BB70BD10B5C8B21D
:104A4000FFF7D0FF002806D081684068BDE810401D
:104A5000D2B207F00ABC10BD10B50022C8B2FFF7F1
:104A6000C1FF28B181684068BDE8104007F004BC70
:104A7000104610BD2DE9F0471E4615460C46C8B23B
:104A8000DDF82080FFF7AEFF6FF0090930B18068D4
:104A900000F046F9070001D4102F02D34846BDE8C4
:104AA000F087FBF7C5FD0346A64807EB470130F941
:104AB0002120A24212D100EB8107D7F804C0B445EF
:104AC0000CD1B7F802C0AC4508D1D7F808C0C4452E
:104AD00004D11846FBF7B0FD0020E0E7521C05D0DA
:104AE0001846FBF7A9FD6FF00200D8E720F8214037
:104AF00000EB810046604580C0F80880E9E770B5AA
:104B00004FF0FF35C8B2FFF76DFF6FF0090630B107
:104B1000806800F005F9040001D4102C01D3304660
:104B200070BDFBF785FD0346864804EB440130F970
:104B30002120521C07D020F8215000EB81000022D8
:104B40004260428082601846FBF776FD002070BD0F
:104B50002DE9F041C8B2FFF745FF04006FF00908E6
:104B600052D0794E012A01D0EAB34DE0A06800F09E
:104B7000D7F8050048D4102D46D2FBF759FD07465B
:104B8000704905EB450031F92020521C09D001EB9A
:104B9000800006EB8506408838B1012807D002283E
:104BA00007D03846FBF748FD2EE0002502E001253E
:104BB00000E002254FF4C06006F06AFEB0780022E3
:104BC000052107F0F2FB617B207B07F08EFB2A4674
:104BD0000021A06807F040FAA06807F09FFA384665
:104BE000FBF72AFD0DE0FFE7806800F099F8002848
:104BF0000ADB102808D216EB800005D0807807F079
:104C00001CFC0020BDE8F0814046FBE770B504467F
:104C10000125A540284607F073FA00280DD0494821
:104C200004EB440100EB8100416809B180688847CA
:104C30002846BDE8704007F071BA70BD10B504F0A9
:104C4000DFF90020FFF7E2FFBDE8104004F0E8B90B
:104C500010B504F0D5F90120FFF7D8FFBDE81040EA
:104C600004F0DEB910B504F0CBF90220FFF7CEFF57
:104C7000BDE8104004F0D4B910B504F0C1F9032028
:104C8000FFF7C4FFBDE8104004F0CAB910B504F046
:104C9000B7F90420FFF7BAFFBDE8104004F0C0B92F
:104CA00010B504F0ADF90520FFF7B0FF0620FFF7BF
:104CB000ADFF0720FFF7AAFF0820FFF7A7FF092095
:104CC000FFF7A4FFBDE8104004F0AAB910B504F046
:104CD00097F90A20FFF79AFF0B20FFF797FF0C20A8
:104CE000FFF794FF0D20FFF791FF0E20FFF78EFFD7
:104CF0000F20FFF78BFFBDE8104004F091B910B50D
:104D00004FF4C06006F0C4FD0121104807F0C4FA5A
:104D10000D490022BDE8104040310DA0FDF723BF32
:104D2000014600205FF0010202FA00F38B4205D039
:104D3000401CC0B22028F7D34FF0FF30704700006E
:104D400038D900085000002018DE000800013000AB
:104D500070696E00F0B50D46016C87B0CC6B2668AB
:104D600020B97822A949AAA004F07EFC25B97922AD
:104D7000A649ACA004F078FC208906F089FD608982
:104D800006F086FDA38A208B0322034318212069A5
:104D900007F014FAE38A03220421206907F00EFACF
:104DA00068780027082801D8029704E010280BD85B
:104DB0004FF400600290A2486C68864202D0A1487D
:104DC000864204D1022003E0082007B0F0BD032092
:104DD00006F0D9FEB4EB500F01D306971FE0B4EBF9
:104DE000900F01D3082019E0B4EBD00F01D31020AD
:104DF00014E0B4EB101F01D318200FE0B4EB501FE8
:104E000001D320200AE0B4EB901F01D3282005E055
:104E1000B4EBD01F01D3302000E038200690287872
:104E200010F0030006D0012806D0022804D0032881
:104E300003D101E0059700E005902878400701D5EF
:104E4000049701E0802004904FF48270CDE90007C0
:104E50004FF400700390304607F038FC6946304646
:104E600007F07EFB304607F092FB0020ADE72DE90E
:104E7000F0470C46016CC56B00F14406CA6BD2F8D2
:104E800000A028B96149F52224396FA004F0ECFB99
:104E90002CB95E49F62224396FA004F0E5FB207C92
:104EA000C00703D0D5E9000107F0DDF970780828C4
:104EB00025D8D4E90167D4F800801DE04FF0FF0940
:104EC000B8F1000F01D018F8019B0221504607F0FD
:104ED00093FC0028F9D04946504607F0DDFB01213C
:104EE000504607F089FC0028F9D0504607F0D6FB61
:104EF000C0B20EB106F8010B7F1EDFD225E01028EC
:104F000023D8D4E90167D4F800801CE04FF0FF09F2
:104F1000B8F1000F01D038F8029B0221504607F08B
:104F20006BFC0028F9D04946504607F0B5FB01213B
:104F3000504607F061FC0028F9D0504607F0AEFB60
:104F40000EB126F8020B7F1EE0D2207C800703D52D
:104F5000D5E9000107F085F9A068BDE8F0872B4886
:104F600010B51C38404AC168C8634168C068FEF784
:104F700093FC040006D0254940F259120E313BA0A3
:104F800004F072FB204610BD2DE9F0411D46144689
:104F90000F46060006D11D4940F265121D3138A0AA
:104FA00004F062FB37B919494FF4B3721D3139A0CF
:104FB00004F05AFB20462C4C2B4608340322C4E94B
:104FC0000005102107F0FAF8D4E9000107F049F9CB
:104FD0002346324639463548FEF774FC040012D0A9
:104FE00033A004F00DFA23463246394634A004F0CB
:104FF00007FA3AA004F004FA044940F279121D318C
:105000001AA004F031FB2046BDE8F08198DE0008CC
:1050100064657669636520213D2052545F4E554C8E
:105020004C000000636F6E66696775726174696F2A
:105030006E20213D2052545F4E554C4C0000000024
:1050400000380040003C00406465766963652021BB
:105050003D204E554C4C00006D65737361676520B3
:10506000213D204E554C4C00100100207265737597
:105070006C74203D3D2052545F454F4B00000000B2
:105080006275735F6E616D6520213D2052545F4EE5
:10509000554C4C006465766963655F6E616D652093
:1050A000213D2052545F4E554C4C00009803002087
:1050B0001B5B33316D5B452F4442475D2000000090
:1050C00025732061747461636820746F20257320D8
:1050D0006661696C642C2025640A00001B5B306DDE
:1050E0000A00000070B503F08BFF924DEC6B2CB9F9
:1050F00040F2D912904991A004F0B6FA9349206881
:1051000006F078FF60B10521206806F04AFF38B14B
:1051100001212846FEF7CDF90521206806F04CFF55
:10512000BDE8704003F07CBF10B50446008906F06E
:10513000AFFB608906F0ACFBE08806F0A9FB238A90
:1051400003221821E06807F039F8238B0322042199
:10515000606907F033F894F904000021002806DAAA
:1051600000F00F0000F1E02080F8141D03E000F1D2
:10517000E02080F8001494F90400BDE8104000F02D
:10518000CEB870B50D46040006D16B4940F25912F5
:1051900044396FA004F068FA35B967494FF4AD722D
:1051A000443970A004F060FAE46B2046FFF7BCFFBE
:1051B0002968206806F092FD287900F00F00092880
:1051C000206801D0002101E04FF4805106F0B5FDC8
:1051D0002879C0F301100128206801D0002101E0E6
:1051E0004FF4005106F0B1FD2879C0F38110012879
:1051F00004D00228206805D0002105E04FF4C061EA
:10520000206801E04FF4806106F08FFD04212068E2
:1052100006F0B3FD0821206806F0A9FD206806F01D
:105220009CFD002070BD70B50E46040006D14249B9
:105230004FF4CA72303946A004F016FAE46B40F21B
:105240000535102E12D0112E18D194F90400012129
:1052500000F01F0291404009800000F1E020C0F8FA
:1052600080112946206806F0BBFE07E094F904008F
:1052700000F055F82946206806F0A8FE002070BD11
:1052800070B50D46040006D12B494FF4DA721E3971
:105290002FA004F0E9F9E46B2946206806F0B7FD79
:1052A0000621206806F07DFE0028F9D0002070BDA0
:1052B00070B5040006D1204940F2C7120F3924A06E
:1052C00004F0D2F9E46B4FF0FF350521206806F0B9
:1052D00068FE18B1206806F09EFD0546284670BDA0
:1052E000154A154810B5583A8438A2F12403D0E97C
:1052F0000010DC692264DA69C2E91110D3E9070100
:1053000040F20312FEF7AFF8040006D00A494FF44A
:105310000172153117A004F0A7F9204610BD00F066
:105320001F02012191404009800000F1E020C0F8F7
:10533000001170475804002050DF00087561727436
:1053400020213D2052545F4E554C4C000503050072
:1053500073657269616C20213D2052545F4E554C3B
:105360004C00000063666720213D2052545F4E557B
:105370004C4C0000726573756C74203D3D20525496
:105380005F454F4B0000000070B5FF4C0546A0681C
:1053900018B104F06CFA0020A06055B1284607F05F
:1053A000B8FD401C04F077F9A06010B1294607F061
:1053B0008CFD002070BDF44810B5C16891F8211033
:1053C000890703D4F149002008700EE0816821B1FB
:1053D0008022EE4807F06CFE07E0EDA1EB4807F0F5
:1053E00074FDEDA1E94807F0FEFDE84810BD10B5D9
:1053F000E54CE06820B97F22E849E9A004F034F9DF
:10540000E06890F82100C0F3400010BD70B5DE4C9C
:105410000546E06828B9E1498E221631E0A004F083
:1054200023F9E06810F8211F65F34101017070BD98
:10543000F8B5D54D00208DF80000E86828B9D749A7
:10544000A2222C31D6A004F00FF9E868D0F80C4263
:105450004FF0FF30002C14D0064601236A46314637
:10546000204601F08BFC01280CD03146E86801F0A1
:105470005BFFE868D0F80C02A042EED00400ECD14B
:105480003046F8BD9DF80000F8BD10B5BE4CE06890
:1054900028B9C249C1223A31C1A004F0E5F8E06858
:1054A00001F0DAFF002010BD70B5B74C0646E06889
:1054B00028B9BA49D4224731B9A004F0D5F830460A
:1054C00001F046FB05002CD0E068D0F80C02A842A1
:1054D0002DD040F24311284601F0CDFB002826D103
:1054E000E068D0F80C0238B101F018FCE068002147
:1054F000D0F80C0201F0C7FCE0685122002100F551
:10550000DB7003F0C3FFE0680021A0F80812A0F8E8
:105510000A12C0F80C522846BDE87040A54901F0B7
:10552000B2BC3146BDE87040A3A003F069BF70BDB6
:1055300010B5954CE06828B99849FB22583198A0DD
:1055400004F092F8E068D0F80C0210BD70B58E4CF3
:105550000546E06830B9914940F20B12693190A0DC
:1055600004F082F8E06810F8211F65F30001017073
:1055700070BD10B5844CE06830B988494FF48C7226
:10558000783187A004F070F8E06890F8210000F00E
:10559000010010BD70B50446B0F80802F0B3A08C4D
:1055A00004F5DB76052826D35022314604F5B37086
:1055B00007F05FFC90B3002505EB850004EB0010BD
:1055C00000F176015022263003F083FF6D1C042D7C
:1055D000F2DB05EB850004EB001026300546502277
:1055E000002103F053FFB4F808222846314603F0A7
:1055F00070FF052024E048B100EB800004EB0010B0
:10560000502231462A3807F034FC38B1A08C60842F
:1056100000EB800004EB0010502200E011E00021BC
:10562000263003F033FFA08CB4F8082200EB800092
:1056300004EB00103146263003F04BFFA08C401CD9
:10564000A084A08C608470BD4F4DE86810F8211FC5
:1056500041F001010170D0F8EB0120B904F097F896
:1056600008B1FFF721FFFFF7A6FE03F0C9FE0026F1
:10567000FFF7DEFE0400FBD41B2C07D0E86890F88F
:105680002010012907D002290ED017E0E968012077
:1056900081F82000ECE75B2C02D080F820600DE060
:1056A000022180F82010E3E780F82060412C3FD0F1
:1056B000422C45D0442C61D0432C60D0002CD7D054
:1056C000FF2CD5D0092C5BD07F2C5AD0082C58D079
:1056D0000D2C57D00A2CFCD0B0F80812502901D359
:1056E000A0F80862B0F80A32B0F808128B424AD229
:1056F000CA1A00F5DB7100F2B7101944184403F020
:105700000EFFE868B0F80A1200F5DB700C54E86888
:1057100090F82110C90707D0B0F80A1200F5DB7025
:1057200001442DA003F06CFEE868B0F80A4204E1E1
:10573000418C19B1491E89B241840EE0468497E735
:10574000818C428C0B46491E8A4202DA521C4284EA
:1057500002E0002B8CD04184418C502201EB81016E
:1057600000EB011100F5DB70263103F0B2FEE868B2
:1057700000F5DB7007F0CDFB01462FE036E041E09D
:1057800053E078E0B7E0DEE020010020AC04002028
:105790006D736820000000003E00000078DF000804
:1057A0007368656C6C20213D2052545F4E554C4C03
:1057B000000000008B54000866696E73683A20632D
:1057C000616E206E6F742066696E64206465766910
:1057D00063653A2025730A0025730000E868A0F885
:1057E0000812A0F80A1200F000F941E7B0F80A0226
:1057F0000028A4D084A003F003FEE868B0F80A12E1
:10580000491E0FE0B0F80A12B0F80822914296D271
:1058100000F5DB70095C7DA003F0F2FDE868B0F8EC
:105820000A12491CA0F80A1222E7002403E076A01D
:1058300003F0E6FD641CE868B0F80A02A042F6DC5A
:10584000EC6873A004F5DB7403F0DAFD204600F089
:1058500061F9FFF7B0FD014622466EA003F0D0FDCE
:10586000E86800F5DB7007F054FBE968A1F808026E
:10587000A1F80A02FCE6B0F80A22002AB5D0B0F876
:105880000812521E491E89B293B2A0F80812A0F85D
:105890000A32994225D9CA1A00F2B71100F5DB7015
:1058A0001944184403F03BFEE868B0F8081200F50C
:1058B000DB700E54E868B0F80A1200F5DB700144A2
:1058C00056A003F09DFDE868B0F80A4203E04EA040
:1058D00003F096FD641CE868B0F80802A04284DB7F
:1058E000F5E750A003F08CFDE868B0F8081200F569
:1058F000DB700E54BCE6FFF74DFEE86890F821001F
:10590000C00702D042A003F07BFDE868B0F808129F
:1059100000F5DB7000F0D9F8FFF74DFD03F070FDE6
:10592000E8685122002100F5DB7003F0AFFDE86864
:1059300023E035A003F064FD641CE868B0F80802B9
:10594000A042F6DC0BE000F5DB700C54E86890F840
:105950002100C00703D021462CA003F051FDE868C8
:10596000B0F80812491C89B2A0F80812B0F80A224F
:10597000521CA0F80A225029BCD3A0F80862A0F853
:105980000A6275E6284AC2E9000170477CB52749DA
:105990002748FFF7F7FF4FF40471012003F05AFF87
:1059A000214CE060D8B10A2114204FF4805300222A
:1059B000CDE90001AFF26F311EA005F0E3F8054616
:1059C00000231A461DA1E06801F0DBFB0120FFF770
:1059D0001DFD15B1284605F064F800207CBD19A016
:1059E00003F00EFD4FF0FF307CBD10B504461BA048
:1059F00003F006FDFFF7DFFC014604F5DB7205A0AE
:105A000003F0FEFC002010BD08000000256300002C
:105A10000A0000002573257300000000082573208C
:105A2000200800000820080020010020E8F10008FC
:105A300028F10008747368656C6C000073687278F4
:105A4000000000006E6F206D656D6F727920666FCB
:105A500072207368656C6C0A000000001B5B324B9F
:105A60000D00000070B59DA003F0CAFCA248A34D34
:105A7000046805E0D4E90012A1A003F0C1FC0C34D5
:105A800028688442F6D3A1A003F0BAFC002070BDC0
:105A900010B500F0B9F9002010BD0EB5002000903F
:105AA0000190029002AA01A9684603F0F2FE98A0B4
:105AB000009903F0A5FC9AA0019903F0A1FC9CA019
:105AC000029903F09DFC00200EBD38B5044601E0AC
:105AD000491E641C59B120782028F9D00928F7D034
